:100000000C9466000C948E000C948E000C94560494
:100010000C948E000C947F040C948E000C948E0033
:100020000C948E000C948E000C948E000C948E0018
:100030000C948E000C948E000C948E000C948E0008
:100040000C94A6020C948E000C94F2010C94CC013A
:100050000C948E000C948E000C948E000C948E00E8
:100060000C948E000C948E004207440755065806E7
:100070005B061F061F06E3060006000000002400C2
:1000800027002A0000000000250028002B0004049F
:100090000404040404040202020202020303030330
:1000A000030301020408102040800102040810200C
:1000B00001020408102000000008000201000003F3
:1000C000040700000000000000006D0A11241FBE9C
:1000D000CFEFD8E0DEBFCDBF11E0A0E0B1E0ECEEA5
:1000E000FFE102C005900D92A634B107D9F724E0D4
:1000F000A6E4B1E001C01D92A337B207E1F710E01A
:10010000C6E6D0E004C02197FE010E94CC0FC536A0
:10011000D107C9F70E9468090C94F40F0C940000F1
:10012000CF92DF92EF92FF920F931F93CF93DF93C3
:100130006C017A018B01C0E0D0E0CE15DF0589F0BB
:10014000D8016D918D01D601ED91FC910190F08166
:10015000E02DC6010995892B11F47E0102C021967C
:10016000ECCFC701DF91CF911F910F91FF90EF90DE
:10017000DF90CF900895089580E090E00895FC010D
:10018000538D448D252F30E0842F90E0821B930BFC
:10019000541710F0CF96089501970895FC01918DA2
:1001A000828D981761F0828DDF01A80FB11D5D96D9
:1001B0008C91928D9F5F9F73928F90E008958FEF47
:1001C0009FEF0895FC01918D828D981731F0828DFB
:1001D000E80FF11D858D90E008958FEF9FEF089552
:1001E000FC01918D228D892F90E0805C9F4F821BB6
:1001F00091098F739927089586E793E00E94F00094
:1002000021E0892B09F420E0822F0895FC01848DE0
:10021000DF01A80FB11DA35ABF4F2C91848D90E030
:1002200001968F739927848FA689B7892C93A0890B
:10023000B1898C9180648C93938D848D981306C0C2
:100240000288F389E02D80818F7D80830895EF926D
:10025000FF920F931F93CF93DF93EC0181E0888F80
:100260009B8D8C8D981305C0E889F989808185FD67
:1002700024C0F62E0B8D10E00F5F1F4F0F73112758
:10028000E02E8C8DE8120CC00FB607FCFACFE8897F
:10029000F989808185FFF5CFCE010E940601F1CF5B
:1002A0008B8DFE01E80FF11DE35AFF4FF0820B8F9B
:1002B000EA89FB898081806207C0EE89FF896083BB
:1002C000E889F98980818064808381E090E0DF9112
:1002D000CF911F910F91FF90EF900895CF93DF93EF
:1002E000EC01888D8823C9F0EA89FB89808185FD2E
:1002F00005C0A889B9898C9186FD0FC00FB607FC8F
:10030000F5CF808185FFF2CFA889B9898C9185FFCF
:10031000EDCFCE010E940601E7CFDF91CF91089586
:1003200080E090E0892B29F00E94FC0081110C9460
:10033000000008953FB7F89480915C0190915D01B1
:10034000A0915E01B0915F0126B5A89B05C02F3F2B
:1003500019F00196A11DB11D3FBFBA2FA92F982FEB
:100360008827820F911DA11DB11DBC01CD0142E066
:10037000660F771F881F991F4A95D1F708958091BE
:10038000560190E001966EE770E00E94960F809310
:10039000560108950E94E60F1F920F920FB60F921A
:1003A00011242F933F934F935F936F937F938F937A
:1003B0009F93AF93BF93EF93FF9386E793E00E94E1
:1003C0000601FF91EF91BF91AF919F918F917F9126
:1003D0006F915F914F913F912F910F900FBE0F90B2
:1003E0001F9018951F920F920FB60F9211242F9302
:1003F0008F939F93EF93FF93E0918603F091870390
:100400008081E0918C03F0918D0382FD12C0908178
:1004100080918F038F5F8F7320919003821751F02B
:10042000E0918F03F0E0EA58FC4F958F80938F03A3
:1004300001C08081FF91EF919F918F912F910F903B
:100440000FBE0F901F901895CF93DF9390E0FC01A3
:10045000EE55FF4F2491FC01E257FF4F8491882312
:1004600061F190E0880F991FFC01E658FF4FC5919C
:10047000D491FC01EC57FF4FA591B491611109C0D3
:100480009FB7F8948881209582238883EC912E234E
:100490000BC0623061F49FB7F8943881822F809549
:1004A00083238883EC912E2B2C939FBF06C08FB79C
:1004B000F894E8812E2B28838FBFDF91CF91089588
:1004C0008F929F92AF92BF92CF92DF92EF92FF9264
:1004D0006B017C010E949A014B015C01C114D104A3
:1004E000E104F104F1F00E949A01DC01CB018819CA
:1004F0009909AA09BB09883E9340A105B10570F38B
:1005000021E0C21AD108E108F10888EE880E83E0E4
:10051000981EA11CB11CC114D104E104F10419F707
:10052000DDCFFF90EF90DF90CF90BF90AF909F9086
:100530008F9008952FB7F8946091580170915901E8
:1005400080915A0190915B012FBF08951F920F92E5
:100550000FB60F9211242F933F938F939F93AF93D6
:10056000BF938091580190915901A0915A01B09187
:100570005B013091570123E0230F2D3720F40196C2
:10058000A11DB11D05C026E8230F0296A11DB11DB6
:10059000209357018093580190935901A0935A01D9
:1005A000B0935B0180915C0190915D01A0915E012F
:1005B000B0915F010196A11DB11D80935C019093E4
:1005C0005D01A0935E01B0935F01BF91AF919F91D8
:1005D0008F913F912F910F900FBE0F901F90189504
:1005E000CF92DF92EF92FF920F931F93CF93DF93FF
:1005F000CDB7DEB766970FB6F894DEBF0FBECDBF9E
:100600006C01AE01495E5F4FDE011196F6019081EB
:100610009E3008F09E50977020910001F0E42F9FCB
:1006200090011124922B90937C0080917A00806439
:1006300080937A0080917A0086FDFCCF209178002B
:100640008091790030E0382B2D933D93A417B507A6
:10065000E9F68AE090E0DE01119620E030E041E02A
:1006600028173907ACF40D911D91ED90FC9011976E
:10067000E016F10654F4AD0142505109FA01F1823D
:10068000E08211961C930E9340E02F5F3F4FE8CF1E
:10069000411102C00197F9F6F60182819381A4818C
:1006A000B5818833F4E09F07A105B10539F56B8565
:1006B0007C85072E000C880B990B0E949D0E20E074
:1006C00030E040EA50E40E94290F9B01AC0160E059
:1006D00070EC8FE794E40E94F30DF60122853385D8
:1006E000448555850E94860DF60126813781408517
:1006F00051850E94F30D0E94650E05C0863B9E4405
:10070000A105B105A1F2CB0166960FB6F894DEBF44
:100710000FBECDBFDF91CF911F910F91FF90EF9052
:10072000DF90CF900895DF92EF92FF920F931F9387
:10073000CF93DF9300D000D0CDB7DEB768EE73E083
:1007400080E090E00E9460020E94A1078FE194E0A7
:100750000E94F0027C0190935501809354010E9405
:10076000BA0768EC70E080E090E00E946002D090F0
:100770005601809170039091710304966AE070E0D5
:100780000E94960F362F6B3008F034E1809172038F
:100790009091730302966AE070E00E94960F262FF4
:1007A0006B3008F024E180917403909175030296F8
:1007B0006AE070E00E94960F062F6B3008F004E1AB
:1007C00080916C0390916D0302966AE070E00E9444
:1007D000960F162F6B3008F014E180916E03909104
:1007E0006F0302966AE070E00E94960F462F6B300E
:1007F00008F044E1C70101976AE070E00E94960F9B
:100800006B3008F064E18EE72A8339834B836C8375
:100810000E94FD0781E090E00E9408088D2D90E085
:100820000E9408083981832F90E00E9408082A81DD
:10083000822F90E00E940808802F90E00E94080814
:10084000812F90E00E9408084B81842F90E00E9445
:1008500008086C81862F90E00E94080881E090E0F3
:100860000E94080881E20E94FD0783E191E00E9456
:10087000EB0786E793E00E946E010E949A02609364
:10088000130470931404809315049093160481E06C
:10089000809353010F900F900F900F90DF91CF91A5
:1008A0001F910F91FF90EF90DF9008951F920F928C
:1008B0000FB60F9211242F933F934F935F936F9333
:1008C0007F938F939F93AF93BF93EF93FF9381E0B9
:1008D00080934F0181E090E00E94CD07FF91EF915E
:1008E000BF91AF919F918F917F916F915F914F9148
:1008F0003F912F910F900FBE0F901F9018951F9250
:100900000F920FB60F9211242F933F934F935F9343
:100910006F937F938F939F93AF93BF93EF93FF93C7
:1009200081E080934E0180E090E00E94CD07FF912E
:10093000EF91BF91AF919F918F917F916F915F9157
:100940004F913F912F910F900FBE0F901F901895D0
:100950002F923F924F925F926F927F928F929F92CF
:10096000AF92BF92CF92DF92EF92FF920F931F93BD
:10097000CF93DF93CDB7DEB7C650D4400FB6F8940F
:10098000DEBF0FBECDBF2DB73EB7CB5FDB4F398388
:100990002883C550D44086E793E00E94F0001816E3
:1009A00019060CF098C08E010F5F1F4F80E094E095
:1009B000F8019C01119221503040E1F7F12C86E7BB
:1009C00093E00E94F000892B51F086E793E00E94AB
:1009D000CE00F801EF0DF11D8083F394F0CFF110FC
:1009E0000DC0CE5FDB4F1882C250D44080916401AD
:1009F00090916501069708F46EC045C0609164014E
:100A00007091650180916201909163012091600174
:100A100030916101F801CF2CD12CDF01A01BB10B6B
:100A2000AC15BD0518F5F190D901A05ABE4F2F5F46
:100A30003F4F1696FC92611542E0740748F4211569
:100A400042E0340710F020E030E06F5F7F4FE5CFE9
:100A5000211542E0340710F020E030E001968115C6
:100A600042E09407D0F280E090E0D7CF309361016C
:100A700020936001909363018093620170936501FC
:100A800060936401AECF60E070E0CE018E5F9B4F5B
:100A90000E94A108882309F4E3C0CE5FDB4F888160
:100AA000C250D4408E3709F0DBC061E070E0CE0167
:100AB0008E5F9B4F0E94A108882369F0CE5FDB4FB9
:100AC0008881C250D440823091F580916401909128
:100AD00065010697C8F40E949A02009113041091D0
:100AE00014042091150430911604005F184D2F4F07
:100AF0003F4F061717072807390708F0FDC18091F7
:100B000053018111DCC1F8C165E070E0CE018E5F58
:100B10009B4F0E94A108882309F4A2C0CE5FDB4F3F
:100B20008881C250D440813209F09AC09CC0833081
:100B300091F6EDB6FEB6CF5FDB4F1882C150D440C0
:100B400062E070E0C8010E94A10863E070E0CE019D
:100B50008F5F9B4F0E94A108CF5FDB4F8881C15000
:100B6000D44090E0EDB7FEB7E81BF90B0FB6F89450
:100B7000FEBF0FBEEDBF2DB73EB72F5F3F4F6901E0
:100B800011823296820F931FE817F90711F0119224
:100B9000FBCFA12CB12CCF5FDB4F0881C150D440DB
:100BA00010E0A016B10664F4B5016C5F7F4FC6017A
:100BB0008A0D9B1D0E94A1083FEFA31AB30AEBCF39
:100BC000A801B601CE0102960E94EB0F0B5F1F4FEA
:100BD00080916401909165018017910730F40FB600
:100BE000F894FEBE0FBEEDBE76CFC12CD12C0E9474
:100BF0007B084FEFC41AD40AC016D106C0F3EFCF5A
:100C00000E94BA078091500190915101069709F412
:100C100032C120916C0330916D0380916E039091ED
:100C20006F032817390709F026C168EE73E080E0EA
:100C300090E00E9460020E9493030E94BF01809195
:100C4000640190916501069708F445CF0E947B08E6
:100C50000E947B080E947B080E947B080E947B0800
:100C60000E947B0838CF62E070E0C8010E94A108B2
:100C700063E070E0CE0102960E94A10864E070E09B
:100C8000CE0103960E94A10881E080935201109248
:100C90005301EA818E2F90E0FC013197E930F10594
:100CA00070F6EC5CFF4F0C94CC0F0E94C80CF7C0A0
:100CB0000E940B0CF4C00E949A021B012C010E949E
:100CC000080962E371E08CE291E00E94A40B62E308
:100CD00070E080E090E00E9460020CE010E0812C67
:100CE000912CA12CB12C92E3E92EFF24F3942CE259
:100CF000C22EDD24D394CD5FDB4F19821882C350FE
:100D0000D440809166038111C6C080916703811130
:100D1000C2C00E949A02DC01CB0182199309A40986
:100D2000B50985369105A105B10558F30E949A02CF
:100D30001B012C010E94FB0B60906A0370906B03F7
:100D4000809168039091690368187908A81AB90A14
:100D50006A0C7B1CA0906803B090690380906A03C2
:100D600090906B03A301CD5FDB4F28813981C35085
:100D7000D440421B530B61147104E1F034E6369DFC
:100D8000C001379D900D1124801B910B6FE0649F73
:100D90009001659F300D1124820F931F64E670E06F
:100DA0000E94960FC60ED71EE61AF70AB701C601B3
:100DB0000E94A40B045F1F4FCD5FDB4F79826882D6
:100DC000C350D4409ECF0E9413090E940B0C8EE1A9
:100DD000F82E0E94A1070E94080980917403909147
:100DE00075030A9709F479C0809172039091730397
:100DF0008A30910509F471C00997F89E8001F99E27
:100E0000100D1124101611068CF011950195110981
:100E100022C080916A0390916B038017910714F5AB
:100E20006CE271E08CE291E00E94A40B8091680377
:100E30009091690380179107ACF4EBCF80916A031E
:100E400090916B03801791076CF464ED7EEF84ED55
:100E50009EEF0E94A40B8091680390916903801714
:100E6000910764F30E947F0B64E670E080E090E0FD
:100E70000E946002AECF0E9413091092510110929D
:100E80005001D3CE0E9413090E9493030E94BF0118
:100E900010925201D4CE0E947F0B0E94080968EE86
:100EA00073E080E090E00E94600280915001909198
:100EB000510101969093510180935001E5CF8091AB
:100EC0005601811102C08DE701C081508093560107
:100ED0000E9493030E94BF010FC00E94C80C0E9491
:100EE000130968EE73E080E090E00E9460021092C7
:100EF000510110925001C8CFCB5FDB4F288139815F
:100F0000C550D4400FB6F8943EBF0FBE2DBFCA5F88
:100F1000DB4F0FB6F894DEBF0FBECDBFDF91CF9190
:100F20001F910F91FF90EF90DF90CF90BF90AF9007
:100F30009F908F907F906F905F904F903F902F90F9
:100F40000895CF93DF9385E694E00E94F002C0E716
:100F5000D3E09983888387E594E00E94F0029B8325
:100F60008A8389E494E00E94F0029D838C83DF9160
:100F7000CF910895CF93DF938BE394E00E94F0022A
:100F8000CCE6D3E0998388838DE294E00E94F0025E
:100F90009B838A83DF91CF9108959C01FC01EE0F22
:100FA000FF1FE859FC4F80819181019691838083D6
:100FB000808191816FE974E00E94960F892B51F432
:100FC00080819181892B31F0F901EA59FC4F8081B0
:100FD0008F5F80830895009769F0FC0101900020E5
:100FE000E9F73197AF01481B590BBC0186E793E045
:100FF0000C94900080E090E00895E0917603F091E9
:1010000077030190F081E02D682F86E793E0099443
:101010008F929F92AF92BF92CF92DF92EF92FF9208
:101020000F931F93CF93DF93CDB7DEB7A1970FB682
:10103000F894DEBF0FBECDBF6C01990FEE08FF081C
:10104000F7FE29C08DE20E94FD078C01222733277D
:10105000A9012C193D094E095F0919A2CE018196FB
:101060007C019AE0892E912CA12CB12CCA01B901E6
:10107000A50194010E94AA0F605DF70162937F01B0
:10108000211531054105510589F7CF010E94EB0774
:10109000800F911F1DC0A701960119A28E010F5D3F
:1010A0001F4F8AE0C82ED12CE12CF12CCA01B901C6
:1010B000A70196010E94AA0F605DF80162938F015B
:1010C000211531054105510589F7CF010E94EB0734
:1010D000A1960FB6F894DEBF0FBECDBFDF91CF91C2
:1010E0001F910F91FF90EF90DF90CF90BF90AF9046
:1010F0009F908F9008954091640150916501411532
:101100005105E9F02091620130916301F901E05A43
:10111000FE4F86819EEF96832F5F3F4F211592E011
:10112000390710F020E030E0309363012093620132
:10113000415051095093650140936401089580E046
:1011400008952091640130916501232B89F0009767
:1011500079F02091620130916301FB01E20FF31FEE
:10116000F170E05AFE4F2681FC01208381E0089552
:10117000FC01108280E0089590E0FC01EA54FF4FEA
:101180003491FC01EE55FF4F2491FC01E257FF4FD3
:10119000E491EE2309F43BC0332339F1333091F06D
:1011A00038F43130A9F0323001F584B58F7D12C0AA
:1011B000373091F03830A1F03430B9F480918000AC
:1011C0008F7D03C0809180008F77809380000DC059
:1011D00084B58F7784BD09C08091B0008F7703C03C
:1011E0008091B0008F7D8093B000F0E0EE0FFF1F84
:1011F000EC57FF4FA591B4918FB7F894EC91611122
:1012000003C020952E2301C02E2B2C938FBF089551
:10121000E8E6F3E01182108213821282E6E6F3E040
:101220001082118208951F93CF93DF9314E10E94DF
:10123000BA070E94080980916C0390916D03209178
:101240006E0330916F03821B930BF1F1189FE00145
:10125000199FD00D11241C161D068CF0D195C19537
:10126000D10922C080916A0390916B038C179D076E
:1012700014F56CE271E084ED9EEF0E94A40B809166
:101280006803909169038C179D07ACF4EBCF8091B4
:101290006A0390916B038C179D076CF464ED7EEFED
:1012A0008CE291E00E94A40B809168039091690305
:1012B0008C179D0764F30E947F0B64E670E080E06A
:1012C00090E00E946002B3CFDF91CF911F9108950B
:1012D000789484B5826084BD84B5816084BD85B511
:1012E000826085BD85B5816085BD80916E0081601D
:1012F00080936E00109281008091810082608093C3
:1013000081008091810081608093810080918000C4
:101310008160809380008091B10084608093B100EF
:101320008091B00081608093B00080917A008460E9
:1013300080937A0080917A00826080937A00809115
:101340007A00816080937A0080917A00806880932F
:101350007A001092C100E0918603F091870382E049
:101360008083E0918203F09183031082E0918403F3
:10137000F091850380E1808310928E03E0918A03CF
:10138000F0918B0386E08083E0918803F0918903DC
:10139000808180618083E0918803F091890380815E
:1013A00088608083E0918803F09189038081806860
:1013B0008083E0918803F091890380818F7D808311
:1013C00086E092E0E0E6F1E0DF019C011D92215011
:1013D0003040E1F761E0809117040E94240261E04F
:1013E000809118040E94240261E089E00E94240296
:1013F00060E0809119040E94240260E080911A0448
:101400000E94240261E080911B040E94240261E09A
:1014100080911C040E94240261E08AE00E94240260
:1014200060E080911D040E94240260E080911E040F
:101430000E94240280EA8093800081E180938100F1
:1014400080E991E0909387008093860060E083E0DC
:101450000E94240260E085E00E94240260E08DE0AA
:101460000E94240260E08BE00E94240280916D00C3
:10147000886080936D00DA9A809168008460809320
:10148000680080916D00806280936D00DA9A80918F
:10149000680084608093680080916B008062809314
:1014A0006B00D89A80916800816080936800809179
:1014B0006B00886080936B00D89A8091680081608F
:1014C0008093680060ED77E080E090E00E94600229
:1014D0000E94A8040E949001FBCFCF92DF92EF926E
:1014E000FF92E6E7F3E01382128288EE93E0A0E039
:1014F000B0E084839583A683B78385E091E09183F0
:10150000808385EC90E09587848784EC90E09787D2
:10151000868780EC90E0918B808B81EC90E0938BC0
:10152000828B82EC90E0958B848B86EC90E0978B9D
:10153000868B118E128E138E148EE5E6F4E08FE00A
:1015400090E09183808388E3C82E84E0D82EE12C3C
:10155000F12CC282D382E482F5828FED9FE4ADE06C
:10156000BDE386839783A087B1878FE195E8ABEED3
:10157000BDE382879387A487B58760E08FE00E94F0
:10158000240281E080930001E7E5F4E08EE090E042
:1015900091838083C282D382E482F5828AE999E9C9
:1015A000A9E1BDE386839783A087B1878BEC96ED95
:1015B000AAEBBDE382879387A487B58760E08EE0BE
:1015C0000E942402E9E4F4E080E190E091838083CA
:1015D000C282D382E482F58289E29CE5AFE0BDE37A
:1015E00086839783A087B1878EEA97E4A1EEBDE357
:1015F00082879387A487B58760E080E10E942402F8
:10160000EBE3F4E083E190E091838083C282D382B4
:10161000E482F5828BE49CE3A0E2BDE386839783BA
:10162000A087B1878BE093E6ABE8BDE38287938721
:10163000A487B58760E083E10E942402EFE1F4E033
:1016400081E190E09183808386EB9EE4A0E0B0E0AE
:1016500082839383A483B58382EF91E4AFE4BCE3F8
:1016600086839783A087B1878CE29DE7A8E2BEE3DB
:1016700082879387A487B58760E081E10E94240276
:10168000EDE2F4E082E190E091838083C282D38234
:10169000E482F58282E89BE8A5E1BDE38683978337
:1016A000A087B18788E09CEAACE9BDE38287938795
:1016B000A487B58760E082E10E942402E7E1F4E0BC
:1016C00082E0808384E0818386E082838EE083836E
:1016D00087E0848388E085838CE086838FE087833E
:1016E0000E949A026093130470931404809315046B
:1016F00090931604FF90EF90DF90CF9008950F9392
:101700001F93CF93DF93C7E1D4E060E088810E940C
:10171000BC0860E089810E94BC0800E911E01093D8
:1017200089000093880060E08C810E94BC0860E022
:101730008D810E94BC0810938B0000938A00DF917A
:10174000CF911F910F910895CF93DF93EB0197FFF6
:1017500005C091958195910921E001C020E0813972
:1017600031E0930714F080E991E090938900809331
:101770008800892B11F460E00AC0222339F060E070
:10178000809117040E94BC0861E006C061E080916E
:1017900017040E94BC0860E0809118040E94BC08F5
:1017A000D7FF05C0D195C195D10981E001C080E086
:1017B000C13991E0D90714F0C0E9D1E0D0938B0092
:1017C000C0938A00CD2B11F460E00AC0882339F061
:1017D00060E080911B040E94BC0861E006C061E0EB
:1017E00080911B040E94BC0860E080911C04DF9182
:1017F000CF910C94BC08CF93DF9386E191E00E94D7
:10180000EB07EC0183E191E00E94EB078C0F9D1F39
:10181000DF91CF9108952F923F924F925F926F92F6
:101820007F928F929F92AF92BF92CF92DF92EF9270
:10183000FF920F931F93CF93DF930E949A022B0185
:101840003C010E9408096EEC70E088E39FEF0E9463
:10185000A40B6AE070E080E090E00E9460028CE0FF
:10186000C82ED12CA12CB12C812C912C9EECE92ED0
:10187000F12C08E31FEF212C312C8091680390910B
:101880006903863196400CF06DC080916A03909197
:101890006B03863196400CF065C00E949A02DC0111
:1018A000CB0184199509A609B709C397A105B1050C
:1018B00020F30E949A022B013C010E94FB0BC09175
:1018C0006A03D0916B038091680390916903CA19F0
:1018D000DB09881A990AC80DD91D80906803909079
:1018E0006903A0906A03B0906B032097B1F126E9D9
:1018F0002C9FC0012D9F900D1124AC014C195D0946
:101900009E01221933096FE0629FC001639F900D11
:101910001124840F951F64E670E00E94960F061B49
:10192000170BE61AF70AB701C8010E94A40B8BE156
:1019300091E00E94EB078EE291E00E94EB07C80164
:101940000E94080889E391E00E94EB07C7010E940A
:10195000080883E191E00E94EB078CE0C80ED11CDF
:101960001E018BCF0E947F0BDF91CF911F910F91B2
:10197000FF90EF90DF90CF90BF90AF909F908F90AF
:101980007F906F905F904F903F902F900C9408093C
:101990002F923F924F925F926F927F928F929F927F
:1019A000AF92BF92CF92DF92EF92FF920F931F936D
:1019B000CF93DF930E949A022B013C010E940809F9
:1019C00062E37FEF88EC90E00E94A40B6AE070E095
:1019D00080E090E00E9460028CE0C82ED12CA12C07
:1019E000B12C812C912C92E3E92EFF24FA9408EC7F
:1019F00010E0212C312C809168039091690386318D
:101A000096400CF06DC080916A0390916B03863113
:101A100096400CF065C00E949A02DC01CB0184194B
:101A20009509A609B709C397A105B10520F30E943E
:101A30009A022B013C010E94FB0BC0916A03D091DA
:101A40006B038091680390916903CA19DB09881AB6
:101A5000990AC80DD91D8090680390906903A090E1
:101A60006A03B0906B032097B1F126E92C9FC00167
:101A70002D9F900D1124AC014C195D099E01221976
:101A800033096FE0629FC001639F900D1124840FA2
:101A9000951F64E670E00E94960F060F171FE60E72
:101AA000F71EB701C8010E94A40B8BE191E00E94D0
:101AB000EB078EE291E00E94EB07C8010E94080844
:101AC00089E391E00E94EB07C7010E94080883E1C7
:101AD00091E00E94EB078CE0C80ED11C1E018BCF59
:101AE0000E947F0BDF91CF911F910F91FF90EF909C
:101AF000DF90CF90BF90AF909F908F907F906F902E
:101B00005F904F903F902F900C9408095058BB273E
:101B1000AA270E949E0D0C94EF0E0E94E10E38F051
:101B20000E94E80E20F039F49F3F19F426F40C943B
:101B3000DE0E0EF4E095E7FB0C94D80EE92F0E9420
:101B4000000F58F3BA17620773078407950720F050
:101B500079F4A6F50C94220F0EF4E0950B2EBA2F13
:101B6000A02D0B01B90190010C01CA01A0011124A3
:101B7000FF27591B99F0593F50F4503E68F11A164F
:101B8000F040A22F232F342F4427585FF3CF4695E0
:101B900037952795A795F0405395C9F77EF41F1602
:101BA000BA0B620B730B840BBAF09150A1F0FF0FCC
:101BB000BB1F661F771F881FC2F70EC0BA0F621FB8
:101BC000731F841F48F4879577956795B795F795A8
:101BD0009E3F08F0B0CF9395880F08F09927EE0F3D
:101BE0009795879508950E94070E0C94EF0E0E941A
:101BF000E80E58F00E94E10E40F029F45F3F29F012
:101C00000C94D80E51110C94230F0C94DE0E0E94EC
:101C1000000F68F39923B1F3552391F3951B550BEE
:101C2000BB27AA2762177307840738F09F5F5F4FAF
:101C3000220F331F441FAA1FA9F335D00E2E3AF0EE
:101C4000E0E832D091505040E695001CCAF72BD006
:101C5000FE2F29D0660F771F881FBB1F2617370757
:101C60004807AB07B0E809F0BB0B802DBF01FF2789
:101C700093585F4F3AF09E3F510578F00C94D80E80
:101C80000C94230F5F3FE4F3983ED4F38695779549
:101C90006795B795F7959F5FC9F7880F911D969542
:101CA000879597F90895E1E0660F771F881FBB1F9E
:101CB000621773078407BA0720F0621B730B840B4B
:101CC000BA0BEE1F88F7E09508950E946C0E689499
:101CD000B1110C94230F08950E94080F88F09F57AC
:101CE00098F0B92F9927B751B0F0E1F0660F771F40
:101CF000881F991F1AF0BA95C9F714C0B13091F036
:101D00000E94220FB1E008950C94220F672F782FC4
:101D10008827B85F39F0B93FCCF3869577956795FA
:101D2000B395D9F73EF490958095709561957F4F66
:101D30008F4F9F4F0895E89409C097FB3EF490950C
:101D40008095709561957F4F8F4F9F4F9923A9F094
:101D5000F92F96E9BB279395F69587957795679523
:101D6000B795F111F8CFFAF4BB0F11F460FF1BC067
:101D70006F5F7F4F8F4F9F4F16C0882311F096E9FA
:101D800011C0772321F09EE8872F762F05C06623A8
:101D900071F096E8862F70E060E02AF09A95660F61
:101DA000771F881FDAF7880F9695879597F908951A
:101DB00097F99F6780E870E060E008959FEF80ECFE
:101DC000089500240A9416161706180609060895A1
:101DD00000240A9412161306140605060895092E07
:101DE0000394000C11F4882352F0BB0F40F4BF2B76
:101DF00011F460FF04C06F5F7F4F8F4F9F4F0895B6
:101E000057FD9058440F551F59F05F3F71F04795AB
:101E1000880F97FB991F61F09F3F79F08795089590
:101E2000121613061406551FF2CF4695F1DF08C0AF
:101E3000161617061806991FF1CF869571056105CC
:101E400008940895E894BB2766277727CB0197F974
:101E500008950E943C0F0C94EF0E0E94E10E38F0A2
:101E60000E94E80E20F0952311F00C94D80E0C94EB
:101E7000DE0E11240C94230F0E94000F70F3959F27
:101E8000C1F3950F50E0551F629FF001729FBB2771
:101E9000F00DB11D639FAA27F00DB11DAA1F649F0D
:101EA0006627B00DA11D661F829F2227B00DA11DC0
:101EB000621F739FB00DA11D621F839FA00D611D46
:101EC000221F749F3327A00D611D231F849F600D67
:101ED000211D822F762F6A2F11249F5750409AF090
:101EE000F1F088234AF0EE0FFF1FBB1F661F771F1C
:101EF000881F91505040A9F79E3F510580F00C94E7
:101F0000D80E0C94230F5F3FE4F3983ED4F38695EC
:101F100077956795B795F795E7959F5FC1F7FE2B86
:101F2000880F911D9695879597F9089597FB072E31
:101F300016F4009407D077FD09D00E94D20F07FC59
:101F400005D03EF4909581959F4F089570956195C9
:101F50007F4F0895A1E21A2EAA1BBB1BFD010DC0E5
:101F6000AA1FBB1FEE1FFF1FA217B307E407F50749
:101F700020F0A21BB30BE40BF50B661F771F881F25
:101F8000991F1A9469F760957095809590959B01BB
:101F9000AC01BD01CF010895EE0FFF1F0590F49134
:101FA000E02D0994AA1BBB1B51E107C0AA1FBB1F50
:101FB000A617B70710F0A61BB70B881F991F5A95D5
:101FC000A9F780959095BC01CD01089581E090E03E
:101FD000F8940C94F40FFB01DC0102C001900D9207
:0C1FE00041505040D8F70895F894FFCF0E
:101FEC00010000000027019000BF006E01F000CE40
:101FFC0000E2000D0A002D2D2D2D0053657474691F
:10200C006E672073706565647320746F3A004D3190
:10201C002053706565643A2000204D322053706562
:06202C0065643A2000008B
:00000001FF
