:100000000C9464000C948C000C948C000C94D4031D
:100010000C948C000C94ED030C948C000C948C00CC
:100020000C948C000C948C000C948C000C948C0020
:100030000C948C000C948C000C948C000C948C0010
:100040000C94E5020C948C000C94E5010C94BF0117
:100050000C948C000C948C000C948C000C948C00F0
:100060000C948C000C948C00A0081C092309330903
:100070006309380A6B0A00000000240027002A00E8
:1000800000000000250028002B00040404040404E0
:100090000404020202020202030303030303010237
:1000A0000408102040800102040810200102040806
:1000B00010200000000800020100000304070000F7
:1000C000000000000000970A11241FBECFEFD8E007
:1000D000DEBFCDBF12E0A0E0B1E0E0E2FCE102C093
:1000E00005900D92A431B107D9F725E0A4E1B2E063
:1000F00001C01D92AC33B207E1F710E0C4E6D0E0D6
:1001000004C02197FE010E94EF0DC336D107C9F745
:100110000E9468070C940E0E0C940000CF92DF92A0
:10012000EF92FF920F931F93CF93DF936C017A01AD
:100130008B01C0E0D0E0CE15DF0589F0D8016D91CC
:100140008D01D601ED91FC910190F081E02DC60169
:100150000995892B11F47E0102C02196ECCFC701CD
:10016000DF91CF911F910F91FF90EF90DF90CF9093
:100170000895089580E090E00895FC01538D448D2A
:10018000252F30E0842F90E0821B930B541710F042
:10019000CF96089501970895FC01918D828D98174F
:1001A00061F0828DDF01A80FB11D5D968C91928D5B
:1001B0009F5F9F73928F90E008958FEF9FEF089558
:1001C000FC01918D828D981731F0828DE80FF11D21
:1001D000858D90E008958FEF9FEF0895FC01918D3C
:1001E000228D892F90E0805C9F4F821B91098F7335
:1001F000992708958FE394E00E94EE0021E0892B77
:1002000009F420E0822F0895FC01848DDF01A80FFE
:10021000B11DA35ABF4F2C91848D90E001968F732E
:100220009927848FA689B7892C93A089B1898C914D
:1002300080648C93938D848D981306C00288F38913
:10024000E02D80818F7D80830895EF92FF920F9340
:100250001F93CF93DF93EC0181E0888F9B8D8C8D72
:10026000981305C0E889F989808185FD24C0F62EA0
:100270000B8D10E00F5F1F4F0F731127E02E8C8D39
:10028000E8120CC00FB607FCFACFE889F989808123
:1002900085FFF5CFCE010E940401F1CF8B8DFE01C9
:1002A000E80FF11DE35AFF4FF0820B8FEA89FB89BB
:1002B0008081806207C0EE89FF896083E889F989BF
:1002C00080818064808381E090E0DF91CF911F91F5
:1002D0000F91FF90EF900895CF93DF93EC01888DFD
:1002E0008823C9F0EA89FB89808185FD05C0A8893A
:1002F000B9898C9186FD0FC00FB607FCF5CF8081C0
:1003000085FFF2CFA889B9898C9185FFEDCFCE0109
:100310000E940401E7CFDF91CF91089580E090E043
:10032000892B29F00E94FA0081110C940000089595
:100330003FB7F8948091190290911A02A0911B0284
:10034000B0911C0226B5A89B05C02F3F19F001965D
:10035000A11DB11D3FBFBA2FA92F982F8827820F4B
:10036000911DA11DB11DBC01CD0142E0660F771F9B
:10037000881F991F4A95D1F708950E94090E1F9270
:100380000F920FB60F9211242F933F934F935F93C9
:100390006F937F938F939F93AF93BF93EF93FF934D
:1003A0008FE394E00E940401FF91EF91BF91AF9120
:1003B0009F918F917F916F915F914F913F912F917D
:1003C0000F900FBE0F901F9018951F920F920FB6AF
:1003D0000F9211242F938F939F93EF93FF93E091AC
:1003E0004F04F09150048081E0915504F09156043F
:1003F00082FD12C09081809158048F5F8F7320918D
:100400005904821751F0E0915804F0E0E15CFB4F91
:10041000958F8093580401C08081FF91EF919F9147
:100420008F912F910F900FBE0F901F90189590E015
:10043000FC01EE54FF4F3491FC01E256FF4F249132
:10044000FC01E657FF4FE491EE2309F43BC0332350
:1004500039F1333091F038F43130A9F0323001F510
:1004600084B58F7D12C0373091F03830A1F0343030
:10047000B9F4809180008F7D03C0809180008F77D8
:10048000809380000DC084B58F7784BD09C08091B2
:10049000B0008F7703C08091B0008F7D8093B00053
:1004A000F0E0EE0FFF1FE058FF4FA591B4918FB71A
:1004B000F894EC91611103C020952E2301C02E2BDE
:1004C0002C938FBF0895CF93DF9390E0FC01E25609
:1004D000FF4F2491FC01E657FF4F8491882361F17F
:1004E00090E0880F991FFC01EA58FF4FC591D49105
:1004F000FC01E058FF4FA591B491611109C09FB76D
:10050000F8948881209582238883EC912E230BC058
:10051000623061F49FB7F8943881822F80958323ED
:100520008883EC912E2B2C939FBF06C08FB7F89435
:10053000E8812E2B28838FBFDF91CF9108958F9272
:100540009F92AF92BF92CF92DF92EF92FF926B0198
:100550007C010E9498014B015C01C114D104E104AB
:10056000F104F1F00E949801DC01CB01881999098E
:10057000AA09BB09883E9340A105B10570F321E0AB
:10058000C21AD108E108F10888EE880E83E0981EAF
:10059000A11CB11CC114D104E104F10419F7DDCF91
:1005A000FF90EF90DF90CF90BF90AF909F908F9093
:1005B00008952FB7F89460911502709116028091FA
:1005C0001702909118022FBF08951F920F920FB635
:1005D0000F9211242F933F938F939F93AF93BF93C9
:1005E0008091150290911602A0911702B091180205
:1005F0003091140223E0230F2D3720F40196A11D22
:10060000B11D05C026E8230F0296A11DB11D209340
:1006100014028093150290931602A0931702B093D0
:1006200018028091190290911A02A0911B02B091B8
:100630001C020196A11DB11D8093190290931A020C
:10064000A0931B02B0931C02BF91AF919F918F9119
:100650003F912F910F900FBE0F901F901895CF9242
:10066000DF92EF92FF920F931F93CF93DF93CDB75B
:10067000DEB7C656D1090FB6F894DEBF0FBECDBFA8
:100680006C01AE0149595F4FDE011196F601908170
:100690009E3008F09E50977020910001F0E42F9F4B
:1006A00090011124922B90937C0080917A008064B9
:1006B00080937A0080917A0086FDFCCF20917800AB
:1006C0008091790030E0382B2D933D93A417B50726
:1006D000E9F682E390E0DE01119620E030E041E0AF
:1006E00028173907ACF40D911D91ED90FC901197EE
:1006F000E016F10654F4AD0142505109FA01F182BD
:10070000E08211961C930E9340E02F5F3F4FE8CF9D
:10071000411102C00197F9F6F60182819381A4810B
:10072000B5818833F4E09F07A105B10539F56BA9C0
:100730007CA9072E000C880B990B0E94C00C20E0AE
:1007400030E040EA50E40E944C0D9B01AC0160E0B7
:1007500070EC8FE794E40E94160CF6012285338535
:10076000448555850E94A90BF60126813781408575
:1007700051850E94160C0E94880C05C0863B9E4441
:10078000A105B105A1F2CB01CA59DF4F0FB6F8940C
:10079000DEBF0FBECDBFDF91CF911F910F91FF90B4
:1007A000EF90DF90CF9008951F920F920FB60F92A7
:1007B00011248F939F93EF93FF93EBE3F4E08281F7
:1007C0009381019693838283FF91EF919F918F9103
:1007D0000F900FBE0F901F9018951F920F920FB69B
:1007E0000F9211248F939F93EF93FF93EBE3F4E029
:1007F00080819181019691838083FF91EF919F91F8
:100800008F910F900FBE0F901F901895EBE3F4E0BF
:10081000118210821382128208951F93CF93DF9367
:100820000E94770514E18091310490913204099778
:1008300009F44EC080912D0490912E04099709F47B
:1008400047C00E94060480912D0490912E040997C0
:10085000189FE001199FD00D11241C161D068CF065
:10086000D195C195D10922C080913D0490913E045B
:100870008C179D0714F568EC70E088EC90E00E94FE
:10088000C80580913B0490913C048C179D07ACF403
:10089000EBCF80913D0490913E048C179D076CF442
:1008A00068E37FEF88E39FEF0E94C80580913B04D7
:1008B00090913C048C179D0764F30E94A30564E6A5
:1008C00070E080E090E00E949F020E947705ABCF2D
:1008D000DF91CF911F910895CF93DF930E949005F0
:1008E0002091290430912A0480912B0490912C04AA
:1008F0002817390709F457C00E940604809129047B
:1009000090912A0420912B0430912C04821B930B8C
:10091000EC0123E0CC0FDD1F2A95E1F7019751F49C
:10092000CE01D7FF04C0882799278C1B9D0B039706
:100930000CF021971C161D068CF0D195C195D1099C
:1009400022C080913D0490913E048C179D0714F5C0
:1009500066E970E08AE69FEF0E94C80580913B043B
:1009600090913C048C179D07ACF4EBCF80913D0433
:1009700090913E048C179D076CF46AE67FEF86E940
:1009800090E00E94C80580913B0490913C048C1734
:100990009D0764F30E94A30564E670E080E090E0A8
:1009A0000E949F029BCFDF91CF910895009769F03D
:1009B000FC0101900020E9F73197AF01481B590B6A
:1009C000BC018FE394E00C948E0080E090E00895E9
:1009D000EF92FF920F931F93CF93DF937C01EB0174
:1009E000E0913D04F0913E0460913B0470913C0421
:1009F0008091390490913A04E81BF90B80913704F7
:100A000090913804861B970BE80FF91FA0913504CD
:100A1000B0913604F0933604E093350480913B04A2
:100A200090913C04909338048093370480913D0466
:100A300090913E0490933A0480933904609133047A
:100A4000709134046E5F7F4F70933404609333046D
:100A5000309709F445C04E9FC0014F9F900D5E9F97
:100A6000900D1124269FA001279F500D369F500DF9
:100A70001124841B950BEA1BFB0B4FE04E9F90014A
:100A80004F9F300D1124820F931F64E670E00E9487
:100A9000B90DF701208131810130110521F00F3F9F
:100AA000FFEF1F0791F4609FC001619F900D709F41
:100AB000900D1124281B390BF701318320839C01F1
:100AC00088819981821B930B09C0260F371FF7017C
:100AD0003183208388819981861B970B9983888332
:100AE000DF91CF911F910F91FF90EF900895CF93D9
:100AF000DF9380E295E00E942F03CDE2D4E099835A
:100B000088838EE295E00E942F039B838A8382E193
:100B100095E00E942F039D838C83DF91CF910895F0
:100B2000CF93DF9384E095E00E942F03C9E2D4E0E5
:100B30009983888386EF94E00E942F039B838A83A6
:100B4000DF91CF9108950F931F93CF93DF93CCED57
:100B5000D4E060E088810E94170260E089810E94F1
:100B6000170200E911E0109389000093880060E00B
:100B70008C810E94170260E08D810E941702109301
:100B80008B0000938A00DF91CF911F910F91089500
:100B9000CF93DF93EB0197FF05C091958195910964
:100BA00021E001C020E0813931E0930714F080E9B1
:100BB00091E09093890080938800892B11F460E084
:100BC0000AC0222339F060E08091DC040E94170201
:100BD00061E006C061E08091DC040E94170260E0E1
:100BE0008091DD040E941702D7FF05C0D195C19501
:100BF000D10981E001C080E0C13991E0D90714F04A
:100C0000C0E9D1E0D0938B00C0938A00CD2B11F4C2
:100C100060E00AC0882339F060E08091E0040E941F
:100C2000170261E006C061E08091E0040E941702B3
:100C300060E08091E104DF91CF910C941702CF9294
:100C4000DF92EF92FF920F931F93CF93DF9300D029
:100C500000D0CDB7DEB788E39FEF9C838B838EEC0B
:100C600090E09A8389830E94D9026B017C011092E3
:100C7000360410923504109234041092330410920A
:100C800038041092370410923A04109239040E94EA
:100C9000060469817A818B819C810E94C80562E388
:100CA00070E080E090E00E949F0280913B04909170
:100CB0003C048231964064F580913D0490913E045D
:100CC000823196402CF50E94D902DC01CB018C19AF
:100CD0009D09AE09BF0985369105A105B10528F327
:100CE00001E010E026E030E046E950E0BE016F5F31
:100CF0007F4FCE0103960E94E8040E94D9026B0147
:100D00007C0169817A818B819C810E94C805CDCF4D
:100D10000E94A3050F900F900F900F90DF91CF913D
:100D20001F910F91FF90EF90DF90CF900895CF9299
:100D3000DF92EF92FF920F931F93CF93DF9300D038
:100D400000D0CDB7DEB788EC90E09C838B8382E344
:100D50009FEF9A8389830E94D9026B017C011092D4
:100D60003604109235041092340410923304109219
:100D700038041092370410923A04109239040E94F9
:100D8000060469817A818B819C810E94C80562E397
:100D900070E080E090E00E949F0280913B0490917F
:100DA0003C048231964064F580913D0490913E046C
:100DB000823196402CF50E94D902DC01CB018C19BE
:100DC0009D09AE09BF0985369105A105B10528F336
:100DD0000FEF1FEF26E030E046E950E0BE016F5F05
:100DE0007F4FCE0103960E94E8040E94D9026B0156
:100DF0007C0169817A818B819C810E94C805CDCF5D
:100E00000E94A3050F900F900F900F90DF91CF914C
:100E10001F910F91FF90EF90DF90CF90089580E1A8
:100E200092E00C94D604CF93DF930E94D604EC0199
:100E30000E940F078C0F9D1FDF91CF9108950C9496
:100E4000D6048F929F92AF92BF920F931F93CF932E
:100E5000DF93CDB7DEB7A1970FB6F894DEBF0FBE14
:100E6000CDBF19A2423008F44AE08E010F5D1F4F3A
:100E7000842E912CA12CB12CA50194010E94CD0DA2
:100E8000E62FB901CA0101501109EA3014F4E05DFE
:100E900001C0E95CD801EC93232B242B252B61F7AF
:100EA000C8010E94D604A1960FB6F894DEBF0FBE0B
:100EB000CDBFDF91CF911F910F91BF90AF909F90C9
:100EC0008F9008954AE060E070E0CB010C94210718
:100ED000CF93DF93CDB7DEB762970FB6F894DEBF3E
:100EE0000FBECDBF789484B5826084BD84B5816027
:100EF00084BD85B5826085BD85B5816085BD8091E5
:100F00006E00816080936E0010928100809181005C
:100F10008260809381008091810081608093810054
:100F2000809180008160809380008091B100846016
:100F30008093B1008091B00081608093B000809177
:100F40007A00846080937A0080917A008260809336
:100F50007A0080917A00816080937A0080917A0093
:100F6000806880937A001092C100E0914F04F09164
:100F7000500482E08083E0914B04F0914C04108295
:100F8000E0914D04F0914E0480E18083109257046B
:100F9000E0915304F091540486E08083E091510481
:100FA000F0915204808180618083E0915104F0913E
:100FB0005204808188608083E0915104F091520452
:100FC000808180688083E0915104F0915204808197
:100FD0008F7D808386E092E0EDE1F2E0DF019C010D
:100FE0001D9221503040E1F761E08091DC040E94C5
:100FF000630261E08091DD040E94630261E089E0A8
:101000000E94630260E08091DE040E94630260E05F
:101010008091DF040E94630261E08091E0040E94FD
:10102000630261E08091E1040E94630261E08AE072
:101030000E94630260E08091E2040E94630260E02B
:101040008091E3040E94630280EA8093800081E142
:101050008093810080E991E09093870080938600DF
:1010600060E083E00E94630260E085E00E9463022A
:1010700060E08DE00E94630260E08BE00E9463020A
:1010800080916D00886080936D00DA9A809168008D
:1010900084608093680080916D00806280936D0011
:1010A000DA9A8091680084608093680080916B0078
:1010B000806280936B00D89A8091680081608093F1
:1010C000680080916B00886080936B00D89A809153
:1010D000680081608093680060ED77E080E090E0D8
:1010E0000E949F029EE0992E2AE0E22EF12C3CE223
:1010F000C32EDD24D39442E3A42EBB24B394E1E0B9
:10110000F1E0DE011196892D01900D928A95E1F7AB
:10111000E0912704F0912804EE0FFF1F81E090E09A
:101120008C0F9D1FE80FF91F0190F081E02D319782
:10113000E730F10508F0E3C1EC5CFF4F0C94EF0DD4
:1011400081E291E00E9413070E9498012B013C016B
:10115000DA8AC98AB88AAF860E94060410923604D9
:101160001092350410923404109233041092380413
:101170001092370410923A041092390404E610E0F9
:101180000D3291E01907C9F00E949801DC01CB01F2
:1011900084199509A609B709C397A105B10580F37C
:1011A000B801665F7F4FC8010E94C8050F5F1F4FDF
:1011B0000E9498012B013C01E3CF0E94D9022B0130
:1011C0003C0162E370E080E090E00E949F02809129
:1011D0003B0490913C048D3394400CF0A5C1809168
:1011E0003D0490913E048D3394400CF09DC10E94CB
:1011F000D902DC01CB0184199509A609B709853606
:101200009105A105B10518F300E010E027E030E0FA
:101210004CE850E0BE01615F7F4FCE0141960E94D5
:10122000E8040E94D9022B013C016F8578898989E5
:101230009A890E94C805CBCF80E391E00E941307F2
:101240000E94970606C08CE391E00E9413070E945B
:101250001F06809125049091260401969093260400
:10126000809325044CC189E491E00E9413070E94F9
:101270009005809125049091260404977CF4809138
:10128000290490912A0420912B0430912C04821778
:10129000930751F0821B930B079734F40E946C0460
:1012A00010922604109225048091290490912A041A
:1012B0000897039708F423C10E941F060E940D049B
:1012C0000E9497061CC189E591E00E9413070E94C5
:1012D000770584EE94E00E942F039093240480937A
:1012E00023040E94900580912D0490912E04813258
:1012F00091052CF00E94620789E691E015C00396E3
:10130000B7010E94B90D162F643008F010E088E78D
:1013100091E00E941F07612F70E080E090E04AE0BA
:101320000E9421078AE891E00E941F070E940F0790
:1013300080912F04909130048F3191052CF00E9400
:10134000620789E691E015C00596B7010E94B90DC4
:10135000162F643008F010E088E991E00E941F0722
:10136000612F70E080E090E04AE00E9421078AE867
:1013700091E00E941F070E940F0780913104909115
:101380003204813291051CF00E94620713C003965B
:10139000B7010E94B90D162F643008F010E089EAF9
:1013A00091E00E941F07612F70E080E090E04AE02A
:1013B0000E94210789E691E00E941F070E940F0703
:1013C0008091290490912A040296B7010E94B90DD8
:1013D000162F643008F010E08CEB91E00E941F079C
:1013E000612F70E080E090E04AE00E9421078AE8E7
:1013F00091E00E941F070E940F0780912B0490919B
:101400002C040296B7010E94B90D162F643008F023
:1014100010E08DEC91E00E941F07612F70E080E0EA
:1014200090E04AE00E94210789E691E00E941F07B0
:101430000E940F0780912304909124040197B70123
:101440000E94B90D162F673008F010E08DED91E085
:101450000E941F07612F70E080E090E04AE00E9448
:1014600021078AE891E00E941F070E940F0747C0EA
:101470008CEE91E00E9413070E946C0464E670E019
:1014800080E090E00E949F020E940D0464E670E0FC
:1014900080E090E00E949F020E941F0664E670E0D8
:1014A00080E090E00E949F020E940D0464E670E0DC
:1014B00080E090E00E949F020E94970664E670E040
:1014C00080E090E00E949F020E946C04109226042B
:1014D0001092250414C080E092E00E94130764ED8E
:1014E0007EEF84ED9EEF0E94C8056CED75E080E014
:1014F00090E00E949F020E94A3050E94060468ECEF
:1015000070E080E090E00E949F028091270490911B
:1015100028048830910528F401969093280480933C
:1015200027040E948E01EBCD0E94A30592CECF929C
:10153000DF92EF92FF92EFE3F4E01382128288EEE3
:1015400093E0A0E0B0E084839583A683B78383E132
:1015500091E09183808385EC90E09587848784EC8B
:1015600090E09787868780EC90E0918B808B81EC70
:1015700090E0938B828B82EC90E0958B848B86EC51
:1015800090E0978B868B118E128E138E148EEEE266
:10159000F5E08EE090E09183808388E3C82E84E0BC
:1015A000D82EE12CF12CC282D382E482F5828AE922
:1015B00099E9A9E1BDE386839783A087B1878BEC86
:1015C00096EDAAEBBDE382879387A487B58760E099
:1015D0008EE00E94630281E080930001E0E2F5E08A
:1015E0008FE090E091838083C282D382E482F5828F
:1015F0008FED9FE4ADE0BDE386839783A087B1873D
:101600008FE195E8ABEEBDE382879387A487B5872A
:1016100060E08FE00E946302E2E1F5E080E190E0AB
:1016200091838083C282D382E482F58286E993E447
:10163000ABE0BDE386839783A087B1878FE892EC08
:10164000A5EFBDE382879387A487B58760E080E13B
:101650000E946302E4E0F5E083E190E091838083FF
:10166000C282D382E482F5828BE49CE3A0E2BDE3F4
:1016700086839783A087B1878BE093E6ABE8BDE3D1
:1016800082879387A487B58760E083E10E94630225
:10169000E4EEF4E081E190E09183808386EB9EE4C8
:1016A000A0E0B0E082839383A483B58382EF91E4CA
:1016B000AFE4BCE386839783A087B1878CE29DE784
:1016C000A8E2BEE382879387A487B58760E081E1C3
:1016D0000E946302E6EFF4E082E190E09183808370
:1016E000C282D382E482F58282E89BE8A5E1BDE371
:1016F00086839783A087B18788E09CEAACE9BDE345
:1017000082879387A487B58760E082E10E946302A5
:10171000ECEDF4E082E0808384E0818386E08283E4
:101720008EE0838387E0848388E085838CE08683F2
:101730008FE087830E94D9026093F2047093F304D0
:101740008093F4049093F504FF90EF90DF90CF9096
:1017500008955058BB27AA270E94C10B0C94120D64
:101760000E94040D38F00E940B0D20F039F49F3FC9
:1017700019F426F40C94010D0EF4E095E7FB0C949B
:10178000FB0CE92F0E94230D58F3BA176207730769
:101790008407950720F079F4A6F50C94450D0EF416
:1017A000E0950B2EBA2FA02D0B01B90190010C0171
:1017B000CA01A0011124FF27591B99F0593F50F489
:1017C000503E68F11A16F040A22F232F342F4427E1
:1017D000585FF3CF469537952795A795F0405395D9
:1017E000C9F77EF41F16BA0B620B730B840BBAF0A9
:1017F0009150A1F0FF0FBB1F661F771F881FC2F714
:101800000EC0BA0F621F731F841F48F48795779527
:101810006795B795F7959E3F08F0B0CF9395880FE1
:1018200008F09927EE0F9795879508950E942A0C46
:101830000C94120D0E940B0D58F00E94040D40F004
:1018400029F45F3F29F00C94FB0C51110C94460DC8
:101850000C94010D0E94230D68F39923B1F35523D5
:1018600091F3951B550BBB27AA27621773078407B3
:1018700038F09F5F5F4F220F331F441FAA1FA9F349
:1018800035D00E2E3AF0E0E832D091505040E69537
:10189000001CCAF72BD0FE2F29D0660F771F881F98
:1018A000BB1F261737074807AB07B0E809F0BB0B8B
:1018B000802DBF01FF2793585F4F3AF09E3F51059F
:1018C00078F00C94FB0C0C94460D5F3FE4F3983ECB
:1018D000D4F3869577956795B795F7959F5FC9F788
:1018E000880F911D9695879597F90895E1E0660F09
:1018F000771F881FBB1F621773078407BA0720F082
:10190000621B730B840BBA0BEE1F88F7E0950895EA
:101910000E948F0C6894B1110C94460D08950E949A
:101920002B0D88F09F5798F0B92F9927B751B0F039
:10193000E1F0660F771F881F991F1AF0BA95C9F753
:1019400014C0B13091F00E94450DB1E008950C949F
:10195000450D672F782F8827B85F39F0B93FCCF352
:10196000869577956795B395D9F73EF490958095D0
:10197000709561957F4F8F4F9F4F0895E89409C0F0
:1019800097FB3EF490958095709561957F4F8F4FB2
:101990009F4F9923A9F0F92F96E9BB279395F695C8
:1019A000879577956795B795F111F8CFFAF4BB0F46
:1019B00011F460FF1BC06F5F7F4F8F4F9F4F16C0AA
:1019C000882311F096E911C0772321F09EE8872F34
:1019D000762F05C0662371F096E8862F70E060E0F0
:1019E0002AF09A95660F771F881FDAF7880F969569
:1019F000879597F9089597F99F6780E870E060E010
:101A000008959FEF80EC089500240A941616170697
:101A100018060906089500240A94121613061406DF
:101A200005060895092E0394000C11F4882352F042
:101A3000BB0F40F4BF2B11F460FF04C06F5F7F4FFA
:101A40008F4F9F4F089557FD9058440F551F59F0E1
:101A50005F3F71F04795880F97FB991F61F09F3F9B
:101A600079F087950895121613061406551FF2CFC4
:101A70004695F1DF08C0161617061806991FF1CF14
:101A800086957105610508940895E894BB2766273B
:101A90007727CB0197F908950E945F0D0C94120DE2
:101AA0000E94040D38F00E940B0D20F0952311F0D8
:101AB0000C94FB0C0C94010D11240C94460D0E9407
:101AC000230D70F3959FC1F3950F50E0551F629F52
:101AD000F001729FBB27F00DB11D639FAA27F00D87
:101AE000B11DAA1F649F6627B00DA11D661F829FAE
:101AF0002227B00DA11D621F739FB00DA11D621F93
:101B0000839FA00D611D221F749F3327A00D611DAF
:101B1000231F849F600D211D822F762F6A2F112491
:101B20009F5750409AF0F1F088234AF0EE0FFF1FC4
:101B3000BB1F661F771F881F91505040A9F79E3F1B
:101B4000510580F00C94FB0C0C94460D5F3FE4F3C0
:101B5000983ED4F3869577956795B795F795E79571
:101B60009F5FC1F7FE2B880F911D9695879597F97A
:101B7000089597FB072E16F4009407D077FD09D03F
:101B80000E94F50D07FC05D03EF4909581959F4F7E
:101B90000895709561957F4F0895A1E21A2EAA1BB2
:101BA000BB1BFD010DC0AA1FBB1FEE1FFF1FA2170D
:101BB000B307E407F50720F0A21BB30BE40BF50B0A
:101BC000661F771F881F991F1A9469F76095709593
:101BD000809590959B01AC01BD01CF010895EE0F5A
:101BE000FF1F0590F491E02D0994AA1BBB1B51E146
:101BF00007C0AA1FBB1FA617B70710F0A61BB70B7D
:101C0000881F991F5A95A9F780959095BC01CD0121
:101C1000089581E090E0F8940C940E0EF894FFCFB4
:101C200001010001000100010001000100000000AD
:101C300000000025018E00BD006C01EE00CC00E02C
:101C4000004D6F76696E6720666F7277617264000F
:101C50004D6F76696E67206C656674004D6F7669AE
:101C60006E672072696768740043616C69627261B3
:101C7000746520526967687400446F696E67204616
:101C8000756C6C205363616E0020626C6F636B73C4
:101C90002061776179200A004C65667420466F7276
:101CA000776172642049523A200020626C6F636B46
:101CB00073206177617920004D696420466F7277E7
:101CC0006172642049523A20005269676874204664
:101CD0006F72776172642049523A200046726F6ECB
:101CE000742052696768742049523A200042616347
:101CF0006B2052696768742049523A20004C65662F
:101D000074204C6F6E672049523A200043616C6921
:101D1000627261746520417420436F726E65720057
:101D2000476F696E67206261636B776172647300ED
:041D30000D0A000098
:107E0000112484B714BE81FFF0D085E080938100F7
:107E100082E08093C00088E18093C10086E0809377
:107E2000C20080E18093C4008EE0C9D0259A86E02C
:107E300020E33CEF91E0309385002093840096BBD3
:107E4000B09BFECF1D9AA8958150A9F7CC24DD24C4
:107E500088248394B5E0AB2EA1E19A2EF3E0BF2EE7
:107E6000A2D0813461F49FD0082FAFD0023811F036
:107E7000013811F484E001C083E08DD089C08234E0
:107E800011F484E103C0853419F485E0A6D080C0E4
:107E9000853579F488D0E82EFF2485D0082F10E0AE
:107EA000102F00270E291F29000F111F8ED06801E7
:107EB0006FC0863521F484E090D080E0DECF843638
:107EC00009F040C070D06FD0082F6DD080E0C81688
:107ED00080E7D80618F4F601B7BEE895C0E0D1E017
:107EE00062D089930C17E1F7F0E0CF16F0E7DF06D8
:107EF00018F0F601B7BEE89568D007B600FCFDCFD4
:107F0000A601A0E0B1E02C9130E011968C91119780
:107F100090E0982F8827822B932B1296FA010C0160
:107F200087BEE89511244E5F5F4FF1E0A038BF0790
:107F300051F7F601A7BEE89507B600FCFDCF97BE46
:107F4000E89526C08437B1F42ED02DD0F82E2BD052
:107F50003CD0F601EF2C8F010F5F1F4F84911BD097
:107F6000EA94F801C1F70894C11CD11CFA94CF0C13
:107F7000D11C0EC0853739F428D08EE10CD085E9AC
:107F80000AD08FE07ACF813511F488E018D01DD067
:107F900080E101D065CF982F8091C00085FFFCCF94
:107FA0009093C60008958091C00087FFFCCF809118
:107FB000C00084FD01C0A8958091C6000895E0E648
:107FC000F0E098E1908380830895EDDF803219F02E
:107FD00088E0F5DFFFCF84E1DECF1F93182FE3DFCA
:107FE0001150E9F7F2DF1F91089580E0E8DFEE27F6
:047FF000FF270994CA
:027FFE00040479
:0400000300007E007B
:00000001FF
