:100000000C946E000C9496000C9496000C94BC0218
:100010000C9496000C94D5020C9496000C949600C7
:100020000C9496000C9496000C9496000C949600F8
:100030000C9496000C9496000C9496000C949600E8
:100040000C94CD010C9496000C941F0C0C94F90B9D
:100050000C9496000C9496000C9496000C949600C8
:100060000C9496000C949600F70AF70A2C0A7B0A67
:100070007E0A450A450A940AA10A450A450A450A24
:10008000450A450A450AD60ADB0A0000000024009A
:1000900027002A0000000000250028002B0004048F
:1000A0000404040404040202020202020303030320
:1000B00003030102040810204080010204081020FC
:1000C00001020408102000000008000201000003E3
:1000D00004070000000000000000C30F11241FBE31
:1000E000CFEFD8E0DEBFCDBF11E0A0E0B1E0E4EF9C
:1000F000F6E202C005900D92AC31B107D9F724E0C9
:10010000ACE1B1E001C01D92AB34B207E1F710E001
:10011000CEE6D0E004C02197FE010E943A13CD360E
:10012000D107C9F70E94BE0E0C9478130C940000FE
:10013000FC01918D228D892F90E0805C9F4F821B66
:1001400091098F739927089580E090E0892B29F019
:100150000E94860B81110C9400000895809120016B
:1001600090E001966AE070E00E94E5128093200121
:100170000895FC01848DDF01A80FB11DA35ABF4F64
:100180002C91848D90E001968F739927848FA68996
:10019000B7892C93A089B1898C9180648C93938DBD
:1001A000848D981306C00288F389E02D80818F7DAD
:1001B0008083089590E0FC01EA53FF4F3491FC01E5
:1001C000EE54FF4F2491FC01E256FF4FE491EE23E1
:1001D00009F43BC0332339F1333091F038F4313036
:1001E000A9F0323001F584B58F7D12C0373091F01F
:1001F0003830A1F03430B9F4809180008F7D03C095
:10020000809180008F77809380000DC084B58F77B8
:1002100084BD09C08091B0008F7703C08091B00089
:100220008F7D8093B000F0E0EE0FFF1FEC56FF4F84
:10023000A591B4918FB7F894EC91611103C020950A
:100240002E2301C02E2B2C938FBF0895CF93DF93C5
:1002500090E0FC01EE54FF4F2491FC01E256FF4F69
:100260008491882361F190E0880F991FFC01E65783
:10027000FF4FC591D491FC01EC56FF4FA591B4916D
:10028000611109C09FB7F8948881209582238883E3
:10029000EC912E230BC0623061F49FB7F894388143
:1002A000822F809583238883EC912E2B2C939FBFE4
:1002B00006C08FB7F894E8812E2B28838FBFDF917B
:1002C000CF9108953FB7F89480912601909127012E
:1002D000A0912801B091290126B5A89B05C02F3F08
:1002E00019F00196A11DB11D3FBFBA2FA92F982F5C
:1002F0008827820F911DA11DB11DBC01CD0142E0D7
:10030000660F771F881F991F4A95D1F708958F921E
:100310009F92AF92BF92CF92DF92EF92FF926B01CA
:100320007C010E9462014B015C01C114D104E10413
:10033000F104F1F00E946201DC01CB0188199909F6
:10034000AA09BB09883E9340A105B10570F321E0DD
:10035000C21AD108E108F10888EE880E83E0981EE1
:10036000A11CB11CC114D104E104F10419F7DDCFC3
:10037000FF90EF90DF90CF90BF90AF909F908F90C5
:1003800008952FB7F8946091220170912301809114
:100390002401909125012FBF08951F920F920FB64F
:1003A0000F9211242F933F938F939F93AF93BF93FB
:1003B0008091220190912301A0912401B091250107
:1003C0003091210123E0230F2D3720F40196A11D48
:1003D000B11D05C026E8230F0296A11DB11D209373
:1003E00021018093220190932301A0932401B093D3
:1003F00025018091260190912701A0912801B091BB
:1004000029010196A11DB11D80932601909327011A
:10041000A0932801B0932901BF91AF919F918F9133
:100420003F912F910F900FBE0F901F901895CF9274
:10043000DF92EF92FF920F931F93CF93DF93CDB78D
:10044000DEB7C656D1090FB6F894DEBF0FBECDBFDA
:100450006C01AE0149595F4FDE011196F6019081A2
:100460009E3008F09E50977020910001F0E42F9F7D
:1004700090011124922B90937C0080917A008064EB
:1004800080937A0080917A0086FDFCCF20917800DD
:100490008091790030E0382B2D933D93A417B50758
:1004A000E9F682E390E0DE01119620E030E041E0E1
:1004B00028173907ACF40D911D91ED90FC90119720
:1004C000E016F10654F4AD0142505109FA01F182EF
:1004D000E08211961C930E9340E02F5F3F4FE8CFD0
:1004E000411102C00197F9F6F60182819381A4813E
:1004F000B5818833F4E09F07A105B10539F56BA9F3
:100500007CA9072E000C880B990B0E94EC1120E0AF
:1005100030E040EA50E40E9478129B01AC0160E0B8
:1005200070EC8FE794E40E944211F6012285338536
:10053000448555850E94D510F60126813781408576
:1005400051850E9442110E94B41105C0863B9E4411
:10055000A105B105A1F2CB01CA59DF4F0FB6F8943E
:10056000DEBF0FBECDBFDF91CF911F910F91FF90E6
:10057000EF90DF90CF9008951F920F920FB60F92D9
:1005800011248F939F93EF93FF93E8E3F3E082812D
:100590009381019693838283FF91EF919F918F9135
:1005A0000F900FBE0F901F9018951F920F920FB6CD
:1005B0000F9211248F939F93EF93FF93E8E3F3E05F
:1005C00080819181019691838083FF91EF919F912A
:1005D0008F910F900FBE0F901F901895E8E3F3E0F6
:1005E0001182108213821282089583EF93E00E9499
:1005F000170290932B0180932A0162E070E080E063
:1006000090E00C948701DF92EF92FF920F931F937B
:10061000CF93DF9368EC70E080E090E00E94870168
:100620000E94630C0E94F5020E948D0CD090200164
:100630004CEF5FEF62E270E08091480390914903D4
:100640000E94E00DE82E4BEF5FEF63E270E08091D7
:100650004A0390914B030E94E00DF82E4CEF5FEFA0
:1006600062E270E080914C0390914D030E94E00D96
:10067000082F4CEF5FEF62E270E0809144039091AD
:1006800045030E94E00D182F4CEF5FEF62E270E02F
:1006900080914603909147030E94E00DD82F20914E
:1006A0002A0130912B012531310574F0C9016AE02E
:1006B00070E00E94E512CB01992707973CF42134A2
:1006C000310524F4C62F03C0C1E001C0C0E08EE7AD
:1006D0000E94440E81E090E00E944F0E8D2D90E02C
:1006E0000E944F0E8E2D90E00E944F0E8F2D90E0B5
:1006F0000E944F0E802F90E00E944F0E812F90E0BD
:100700000E944F0E8D2F90E00E944F0E8C2F90E094
:100710000E944F0E81E090E00E944F0E81E20E9405
:10072000440E0E94DA0D8EE493E00E94D70B0E94E3
:10073000C1016093010470930204809303049093B9
:10074000040481E080931F01DF91CF911F910F91ED
:10075000FF90EF90DF90089586E79EEF0E94D00C07
:1007600066E070E080E090E00E9487010E94AB0CA0
:100770000C94EE028F929F92AF92BF92CF92DF9233
:10078000EF92FF920F931F93CF93DF930E948D0CF4
:1007900083E191E00E94DE0D0E94DA0DCAE0D0E014
:1007A00096EFE92EFF24FA942AE0D22E35E0C32EEC
:1007B0002091440330914503E0914603F0914703B3
:1007C000C901BE010E94E5128C01CF01BE010E9449
:1007D000E5120817190709F4D7C02E1B3F0B2D5E31
:1007E0003F4F2732310508F0CFC00E94EE02209122
:1007F000440330914503E0914603F0914703C9015A
:10080000BE010E94E5124B018C01CF01BE010E9486
:10081000E5125B018616970669F42E173F071CF454
:10082000009510953AC080959095280F391FE80FD4
:10083000F91F42C0CF01B7010E94E512860E971E34
:10084000181419046CF481E088169104A9F181E070
:10085000881A9108D89C8001D99C100D112412C0CF
:10086000C901B7010E94E512A60EB71E82E0A816C4
:10087000B10414F181E0A81AB108DA9C8001DB9C74
:10088000100D11240F5F1F4F2E173F075CF4C90195
:10089000BE010E94E512081B190BE00FF11F200F8B
:1008A000311F0AC0CF01BE010E94E512081B190BBF
:1008B000200F311FE00FF11FC901BE010E94E51298
:1008C0008C01CF01BE010E94E512081B190B83E0C9
:1008D000000F111F8A95E1F7C9018E1B9F0BBE0106
:1008E0000E94E51297FF03C09195819591090197A8
:1008F00059F4C80117FF04C088279927801B910B62
:10090000039714F00150110910161106D4F4C09E7B
:100910005001C19EB00C112480913803909139038D
:100920008A159B0534F580913A0390913B038A1513
:100930009B05FCF466E970E08AE69FEF0E94F90CE3
:10094000EBCF1195019511098091380390913903EE
:100950008017910774F480913A0390913B038017BC
:1009600091073CF46AE67FEF86E990E00E94F90C7B
:10097000EBCF0E94AB0C64E670E080E090E00E9458
:1009800087010E948D0C14CFDF91CF911F910F91A1
:10099000FF90EF90DF90CF90BF90AF909F908F909F
:1009A00008951F93CF93DF930E94630C14E180910D
:1009B0004C0390914D030A9709F44EC0809148036F
:1009C000909149030A9709F447C00E94EE02809172
:1009D0004803909149030A97189FE001199FD00D91
:1009E00011241C161D068CF0D195C195D10922C089
:1009F00080913A0390913B038C179D0714F568ECA6
:100A000070E088EC90E00E94F90C8091380390919E
:100A100039038C179D07ACF4EBCF80913A0390918A
:100A20003B038C179D076CF468E37FEF88E39FEF2F
:100A30000E94F90C80913803909139038C179D071F
:100A400064F30E94AB0C64E670E080E090E00E94EA
:100A500087010E94630CABCFDF91CF911F91089566
:100A60001F93CF93DF930E948D0C15E08091440378
:100A700090914503209146033091470382179307D5
:100A800009F466C0821B930B07970CF061C00E94AB
:100A9000EE022091440330914503809146039091EA
:100AA0004703281B390BC90143E0880F991F4A955A
:100AB000E1F72130310559F49C0197FF04C022274A
:100AC0003327281B390B233031050CF001971816FA
:100AD0001906D4F4189FE001199FD00D11248091BC
:100AE0003803909139038C179D073CF580913A03A8
:100AF00090913B038C179D0704F566E970E08AE648
:100B00009FEF0E94F90CEBCFCC27DD27C81BD90B38
:100B100080913803909139038C179D0774F480916C
:100B20003A0390913B038C179D073CF46AE67FEFF4
:100B300086E990E00E94F90CEBCF0E94AB0C64E6D2
:100B400070E080E090E00E9487010E948D0C8ECFC3
:100B5000DF91CF911F910895CF92DF92EF92FF9294
:100B60000F931F93CF93DF936C01EB01E0913A0356
:100B7000F0913B03609138037091390380913E03FB
:100B800090913F03E81BF90B80913C0390913D034A
:100B9000861B970BE80FF91FA0914203B091430306
:100BA000F0934303E093420380913803909139031B
:100BB00090933D0380933C0380913A0390913B03D3
:100BC00090933F0380933E036091400370914103F3
:100BD0006E5F7F4F7093410360934003309709F439
:100BE00047C04E9FC0014F9F900D5E9F900D1124F6
:100BF000269FA001279F500D369F500D1124841B66
:100C0000950BEA1BFB0B0E9F90010F9F300D1E9F53
:100C1000300D1124820F931F64E670E00E94E512EC
:100C2000F60120813181F1E0EF16F10421F08FEF20
:100C3000E816F80691F46E9DC0016F9D900D7E9DA3
:100C4000900D1124281B390BF601318320839C0160
:100C500088819981821B930B09C0260F371FF601EB
:100C60003183208388819981861B970B99838883A0
:100C7000DF91CF911F910F91FF90EF90DF90CF9078
:100C800008954F925F926F927F92AF92BF92CF92F0
:100C9000DF92EF92FF920F931F93CF93DF9300D0D9
:100CA00000D0CDB7DEB78C018CE291E09C838B83C2
:100CB00085EC9EEF9A8389830E94C1012B013C0140
:100CC000109243031092420310924103109240038A
:100CD00010923D0310923C0310923F0310923E038A
:100CE0000E94EE0269817A818B819C810E94F90CBD
:100CF00062E370E080E090E00E9487010A35110510
:100D000029F498EEC92E95E0D92E0CC020E833E4E2
:100D1000D8010E94401328EE33E040E050E00E94EA
:100D20001B13690156018DECA81AB1088091380394
:100D3000909139038A159B057CF580913A03909137
:100D40003B038A159B0544F50E94C101DC01CB01E0
:100D500084199509A609B70985369105A105B1053C
:100D600028F3EE24EA94FE2C0FE010E026E030E0B9
:100D700046E950E0BE016F5F7F4FCE0103960E94AF
:100D8000AC050E94C1012B013C0169817A818B81F4
:100D90009C810E94F90CCACF0E9462012B013C0188
:100DA00000E010E085E0C81AD108809138039091E6
:100DB00039038C159D054CF580913A0390913B03C6
:100DC0008C159D0514F50E946201DC01CB0184198C
:100DD0009509A609B709C397A105B10530F3698143
:100DE0007A81600F711F8B819C81801B910B0E9407
:100DF000F90C0F5F1F4F0536110514F004E610E0E3
:100E00000E9462012B013C01D0CF0E94AB0C0F90DD
:100E10000F900F900F90DF91CF911F910F91FF9046
:100E2000EF90DF90CF90BF90AF907F906F905F90EA
:100E30004F9008950E94300564E670E080E090E0F5
:100E40000E9487010E94D10464E670E080E090E097
:100E50000E9487010E94290D64E670E080E090E026
:100E60000E9487010E94D10464E670E080E090E077
:100E70000E9487018AE590E00E94410664E670E0E6
:100E800080E090E00E9487010C9430054F925F92C1
:100E90006F927F92AF92BF92CF92DF92EF92FF92CA
:100EA0000F931F93CF93DF9300D000D0CDB7DEB761
:100EB0006C010E9462012B013C0180E991E09C835E
:100EC0008B839A8389830E94EE02109243031092CF
:100ED0004203109241031092400310923D0310927E
:100EE0003C0310923F0310923E0302E310E00D32E8
:100EF00081E01807C9F00E946201DC01CB0184196E
:100F00009509A609B709C397A105B10580F3B801F2
:100F1000665F7F4FC8010E94F90C0F5F1F4F0E9450
:100F200062012B013C01E3CF0E94C1012B013C0176
:100F300062E370E080E090E00E94870189EAC816D1
:100F400084E0D8069CF156018DEBA81A81E0B80A1E
:100F500076C080913A0390913B038C159D056CF50A
:100F60000E94C101DC01CB0184199509A609B709CA
:100F700085369105A105B105C8F0E12CF12C0EE1F3
:100F800010E027E030E046E950E0BE016F5F7F4FA0
:100F9000CE0103960E94AC050E94C1012B013C01C9
:100FA00069817A818B819C810E94F90C8091380340
:100FB000909139038C159D0564F20E94AB0C0F9043
:100FC0000F900F900F90DF91CF911F910F91FF9095
:100FD000EF90DF90CF90BF90AF907F906F905F9039
:100FE0004F90089580913A0390913B038A159B0599
:100FF0006CF50E94C101DC01CB0184199509A60999
:10100000B70985369105A105B105C8F0E12CF12C91
:101010000FE010E027E030E044E650E0BE016F5FF3
:101020007F4FCE0103960E94AC050E94C1012B01A7
:101030003C0169817A818B819C810E94F90C8091AD
:101040003803909139038A159B0564F20E9462016E
:101050002B013C0100E010E08091380390913903AE
:101060008C159D050CF0A9CF80913A0390913B031C
:101070008C159D050CF0A1CF0E946201DC01CB0113
:1010800084199509A609B709C397A105B10520F3ED
:1010900069817A81601B710B8B819C81801B910B14
:1010A0000E94F90C0F5F1F4F0536110514F004E67E
:1010B00010E00E9462012B013C01CECF8F929F92E3
:1010C000AF92BF92CF92DF92EF92FF920F931F9356
:1010D000CF93DF93CDB7DEB7C350D4400FB6F894AB
:1010E000DEBF0FBECDBFEDB6FEB68EE493E00E942C
:1010F0009800181619060CF098C08E010F5F1F4F4C
:1011000080E094E0F8019C01119221503040E1F719
:10111000D12C8EE493E00E949800892B51F08EE44C
:1011200093E00E94620BF801ED0DF11D8083D394D2
:10113000F0CFD1100DC0CD5FDB4F1882C350D4402B
:101140008091360190913701069708F46EC045C032
:101150006091360170913701809134019091350191
:101160002091320130913301F801AD2CB12CDF0117
:10117000A01BB10BAA15BB0518F5D190D901AE5C27
:10118000BE4F2F5F3F4F1696DC92611542E0740709
:1011900048F4211542E0340710F020E030E06F5FA2
:1011A0007F4FE5CF211542E0340710F020E030E01A
:1011B0000196811542E09407D0F280E090E0D7CF0D
:1011C00090933501809334013093330120933201A1
:1011D0007093370160933601AECF60E070E0CE01CE
:1011E0008D5F9B4F0E94A30E882309F45FC1CD5FE2
:1011F000DB4F8881C350D4408E3709F057C161E07E
:1012000070E0CE018D5F9B4F0E94A30E882369F092
:10121000CD5FDB4F8881C350D440823091F58091FF
:101220003601909137010697C8F40E94C1010091E0
:101230000104109102042091030430910404005F22
:10124000184D2F4F3F4F061717072807390708F08B
:10125000E2C180911F018111D1C1DDC165E070E063
:10126000CE018D5F9B4F0E94A30E882309F41EC1FF
:10127000CD5FDB4F8881C350D440813209F016C165
:1012800018C1833091F6CE5FDB4F1882C250D44034
:1012900062E070E0C8010E94A30E63E070E0CE013E
:1012A0008E5F9B4F0E94A30ECE5FDB4F6881C250C2
:1012B000D44070E06C5F7F4F809136019091370190
:1012C0008617970708F4B1CFCE018F5F9B4F0E941E
:1012D000A30E882309F4A9CFCF5FDB4F8881C150CB
:1012E000D440813209F0A1CFCDB6DEB6CE5FDB4F60
:1012F0008881C250D44090E02DB73EB7281B390BEF
:101300000FB6F8943EBF0FBE2DBFEDB7FEB73196B6
:101310005F01EDB7FEB7118232968A0D9B1DE8176B
:10132000F90711F01192FBCF812C912CCE5FDB4F8E
:101330004881C250D44050E08416950664F4B4014C
:101340006C5F7F4FC501880D991D0E94A30E8FEF22
:10135000881A980AEBCFB501CE0102960E946F134E
:10136000A12CB12C88EA882E84E0982ECE5FDB4F2A
:101370002881C250D44030E0A216B3060CF046C01B
:10138000E2E0F0E0EC0FFD1FEA0DFB1D80818430F0
:1013900071F128F48330B1F58AE590E02BC08530F7
:1013A00029F0803179F584EB90E024C041E050E0F1
:1013B000C50101968217930754F4F801E80FF91F4D
:1013C0006181653021F44F5F5F4F5C01F1CF4130A7
:1013D000510541F0489DC001499D900D589D900DCB
:1013E000112402C084E094E00E94460705C00E94D8
:1013F000290D02C00E94410664E670E080E090E0A2
:101400000E948701EFEFAE1ABE0AB0CF0E9403031D
:101410000E94AE0010921E01CE5FDB4F0881C250C9
:10142000D44010E00B5F1F4F80913601909137013F
:101430008017910730F40FB6F894DEBE0FBECDBE14
:10144000F4CEA12CB12C0E947D0EFFEFAF1ABF0A83
:10145000A016B106C0F3EFCF8AE590E00E944106E6
:1014600064E170E080E090E00E94870180911C01BF
:1014700090911D01019690931D0180931C010E9483
:1014800003030E94AE0010921E01809136019091DC
:101490003701069708F4C9CE0E947D0E0E947D0E8A
:1014A0000E947D0E0E947D0E0E947D0E0E947D0E88
:1014B000BCCE62E070E0C8010E94A30E63E070E061
:1014C000CE0102960E94A30E64E070E0CE01039666
:1014D0000E94A30E81E080931E0110921F01EA81F9
:1014E0008E2F90E0FC013197E131F10570F6EC5C54
:1014F000FF4F0C943A130E94290DB2CF84E094E080
:101500000E94460764E170E080E090E00E9487015D
:1015100080912C0190912D01019690932D01809343
:101520002C010E94AC03A2CF0E941A0764E170E074
:1015300080E090E00E94870110921D0110921C0132
:101540009ECF80911C0190911D0104977CF48091A5
:10155000440390914503209146033091470382173D
:101560009307F9F0821B930B0797DCF40E94300578
:1015700080914403909145038A30910591F0209128
:10158000460330914703821B930B079754F40E9444
:10159000290D0E94D1048AE590E00E9441060E9434
:1015A000300510921D0110921C0121C084EB90E0C7
:1015B0000E9441061CC080914403909145032091F4
:1015C000460330914703821B930B9C012D5E3F4FD6
:1015D0002732310550F497FF03C091958195910909
:1015E00006971CF00E94BA0302C00E94300564E115
:1015F00070E080E090E00E94870141CF809120015F
:10160000811102C089E001C08150809320010E94B5
:1016100003030E94AE000FB6F894FEBE0FBEEDBEEF
:10162000CD5FDB4F0FB6F894DEBF0FBECDBFDF91AD
:10163000CF911F910F91FF90EF90DF90CF90BF90CF
:10164000AF909F908F900895CF92DF92EF92FF928C
:101650000F931F93CF93DF936C017A018B01C0E04E
:10166000D0E0CE15DF0589F0D8016D918D01D6014E
:10167000ED91FC910190F081E02DC6010995892B37
:1016800011F47E0102C02196ECCFC701DF91CF910A
:101690001F910F91FF90EF90DF90CF9008950895E4
:1016A00080E090E00895FC01538D448D252F30E0BB
:1016B000842F90E0821B930B541710F0CF9608955F
:1016C00001970895FC01918D828D981761F0828DAC
:1016D000DF01A80FB11D5D968C91928D9F5F9F7366
:1016E000928F90E008958FEF9FEF0895FC01918D08
:1016F000828D981731F0828DE80FF11D858D90E075
:1017000008958FEF9FEF08950E946A138EE493E08F
:101710000E94980021E0892B09F420E0822F08958F
:10172000EF92FF920F931F93CF93DF93EC0181E031
:10173000888F9B8D8C8D981305C0E889F9898081ED
:1017400085FD24C0F62E0B8D10E00F5F1F4F0F7329
:101750001127E02E8C8DE8120CC00FB607FCFACFD3
:10176000E889F989808185FFF5CFCE010E94B90013
:10177000F1CF8B8DFE01E80FF11DE35AFF4FF08290
:101780000B8FEA89FB898081806207C0EE89FF891F
:101790006083E889F98980818064808381E090E0BA
:1017A000DF91CF911F910F91FF90EF900895CF930C
:1017B000DF93EC01888D8823C9F0EA89FB89808159
:1017C00085FD05C0A889B9898C9186FD0FC00FB62B
:1017D00007FCF5CF808185FFF2CFA889B9898C916C
:1017E00085FFEDCFCE010E94B900E7CFDF91CF9109
:1017F00008951F920F920FB60F9211242F933F93CB
:101800004F935F936F937F938F939F93AF93BF9308
:10181000EF93FF938EE493E00E94B900FF91EF9164
:10182000BF91AF919F918F917F916F915F914F91F8
:101830003F912F910F900FBE0F901F9018951F9200
:101840000F920FB60F9211242F938F939F93EF93C4
:10185000FF93E0915E03F0915F038081E091640368
:10186000F091650382FD12C09081809167038F5FC4
:101870008F7320916803821751F0E0916703F0E0C5
:10188000E25BFC4F958F8093670301C08081FF91DD
:10189000EF919F918F912F910F900FBE0F901F90FE
:1018A0001895009769F0FC0101900020E9F7319745
:1018B000AF01481B590BBC018EE493E00C94240B40
:1018C00080E090E00895CF93DF938FE294E00E9450
:1018D0001702C8E4D3E09983888362E070E080E077
:1018E00090E00E9487018DE394E00E9417029B83A1
:1018F0008A8362E070E080E090E00E94870181E2EC
:1019000094E00E9417029D838C8362E070E080E087
:1019100090E0DF91CF910C948701CF93DF9383E127
:1019200094E00E941702C4E4D3E09983888362E0C4
:1019300070E080E090E00E94870185E094E00E94E2
:1019400017029B838A8362E070E080E090E0DF9181
:10195000CF910C9487010F931F93CF93DF93CBEE1E
:10196000D3E060E088810E94DA0060E089810E9413
:10197000DA0000E911E0109389000093880060E02C
:101980008C810E94DA0060E08D810E94DA00109361
:101990008B0000938A00DF91CF911F910F910895E2
:1019A00097FF05C091958195910921E001C020E044
:1019B000813931E0930714F080E991E09093890038
:1019C00080938800892B11F460E00AC0222339F04B
:1019D00060E08091EB030E94DA0061E006C061E004
:1019E0008091EB030E94DA0060E08091EC030C949C
:1019F000DA00CF93DF93EB010E94D00CD7FF05C034
:101A0000D195C195D10981E001C080E0C13991E053
:101A1000D90714F0C0E9D1E0D0938B00C0938A00BD
:101A2000CD2B11F460E00AC0882339F060E080918A
:101A3000EF030E94DA0061E006C061E08091EF03ED
:101A40000E94DA0060E08091F003DF91CF910C9466
:101A5000DA00CF92DF92EF92FF920F931F93CF9312
:101A6000DF9300D000D0CDB7DEB784ED9EEF9C832E
:101A70008B8382E391E09A8389830E94C1016B0189
:101A80007C01109243031092420310924103109282
:101A9000400310923D0310923C0310923F031092BA
:101AA0003E030E94EE0269817A818B819C810E94B3
:101AB000F90C62E370E080E090E00E948701809181
:101AC000380390913903833195407CF580913A0336
:101AD00090913B038331954044F50E94C101DC01A4
:101AE000CB018C199D09AE09BF0985369105A10569
:101AF000B10528F3EE24E394F12C0FE010E026E08A
:101B000030E046E950E0BE016F5F7F4FCE010396A3
:101B10000E94AC050E94C1016B017C0169817A8140
:101B20008B819C810E94F90CCACF0E9462016B01DB
:101B30007C0100E010E080913803909139038B3DE7
:101B400095404CF580913A0390913B038B3D954035
:101B500014F50E946201DC01CB018C199D09AE09CC
:101B6000BF09C397A105B10530F369817A81601B74
:101B7000710B8B819C81800F911F0E94F90C0F5F6C
:101B80001F4F0536110514F004E610E00E946201B3
:101B90006B017C01D0CF0E94AB0C0F900F900F9087
:101BA0000F90DF91CF911F910F91FF90EF90DF90F9
:101BB000CF90089589E191E00C94510C0C94510C54
:101BC0009C01FB018A30910584F0841B950B6AE02F
:101BD00070E00E94E512643071051CF42E173F0777
:101BE00014F060E070E0862F089581E00895CF93AF
:101BF000DF930E94510CEC010E94DA0D8C0F9D1FA7
:101C0000DF91CF9108958F929F92AF92BF920F93E1
:101C10001F93CF93DF93CDB7DEB7A1970FB6F8949C
:101C2000DEBF0FBECDBF19A2423008F44AE08E01DC
:101C30000F5D1F4F842E912CA12CB12CA501940176
:101C40000E94F912E62FB901CA0101501109EA30C8
:101C500014F4E05D01C0E95CD801EC93232B242B44
:101C6000252B61F7C8010E94510CA1960FB6F8947C
:101C7000DEBF0FBECDBFDF91CF911F910F91BF90FF
:101C8000AF909F908F900895E0914E03F0914F0395
:101C90000190F081E02D682F8EE493E00994CF92BB
:101CA000DF92EF92FF92CF93DF936C01990FEE08D2
:101CB000FF08F7FE17C08DE20E94440EEC01662774
:101CC0007727CB016C197D098E099F094AE00E9494
:101CD000030E8C0F9D1FDF91CF91FF90EF90DF904F
:101CE000CF9008954AE0C701B601DF91CF91FF90F0
:101CF000EF90DF90CF900C94030E409136015091FD
:101D0000370141155105E9F0209134013091350139
:101D1000F901EE5CFE4F86819EEF96832F5F3F4F69
:101D2000211592E0390710F020E030E030933501C2
:101D300020933401415051095093370140933601AB
:101D4000089580E008952091360130913701232BCA
:101D500089F0009779F02091340130913501FB0131
:101D6000E20FF31FF170EE5CFE4F2681FC01208331
:101D700081E00895FC01108280E00895789484B594
:101D8000826084BD84B5816084BD85B5826085BD77
:101D900085B5816085BD80916E00816080936E0005
:101DA00010928100809181008260809381008091F7
:101DB00081008160809381008091800081608093A8
:101DC00080008091B10084608093B1008091B00068
:101DD00081608093B00080917A00846080937A0063
:101DE00080917A00826080937A0080917A0081608D
:101DF00080937A0080917A00806880937A001092B4
:101E0000C100E0915E03F0915F0382E08083E09186
:101E10005A03F0915B031082E0915C03F0915D0343
:101E200080E1808310926603E0916203F091630386
:101E300086E08083E0916003F0916103808180619E
:101E40008083E0916003F0916103808188608083EA
:101E5000E0916003F0916103808180688083E0916C
:101E60006003F091610380818F7D808386E092E042
:101E7000E2E3F1E0DF019C011D9221503040E1F7E7
:101E800061E08091EB030E94260161E08091EC0308
:101E90000E94260161E089E00E94260160E08091B5
:101EA000ED030E94260160E08091EE030E9426016E
:101EB00061E08091EF030E94260161E08091F003D0
:101EC0000E94260161E08AE00E94260160E0809184
:101ED000F1030E94260160E08091F2030E94260136
:101EE00080EA8093800081E18093810080E991E025
:101EF000909387008093860060E083E00E94260133
:101F000060E085E00E94260160E08DE00E942601ED
:101F100060E08BE00E94260180916D0088608093D4
:101F20006D00DA9A809168008460809368008091E7
:101F30006D00806280936D00DA9A80916800846001
:101F40008093680080916B00806280936B00D89AC8
:101F50008091680081608093680080916B00886048
:101F600080936B00D89A80916800816080936800AC
:101F700060ED77E080E090E00E9487010E945E08BB
:101F80000E94A400FBCFCF92DF92EF92FF92EEE48B
:101F9000F3E01382128288EE93E0A0E0B0E0848345
:101FA0009583A683B78385E091E09183808385EC58
:101FB00090E09587848784EC90E09787868780EC13
:101FC00090E0918B808B81EC90E0938B828B82EC04
:101FD00090E0958B848B86EC90E0978B868B118EAE
:101FE000128E138E148E0E94C101609301047093AF
:101FF00002048093030490930404EDE3F4E08EE084
:1020000090E09183808388E3C82E84E0D82EE12C71
:10201000F12CC282D382E482F5828CEB94E7A3E1B7
:10202000BDE386839783A087B1878FE892ECA5E70D
:10203000BDE382879387A487B58760E08EE00E9426
:10204000260181E080930001EFE2F4E08FE090E070
:1020500091838083C282D382E482F58286E993E40D
:10206000ABE0BDE386839783A087B1878CEE91E5D3
:10207000A8EBBDE382879387A487B58760E08FE0F4
:102080000E942601E1E2F4E080E190E09183808308
:10209000C282D382E482F5828CEB96E9A0E1BDE3B3
:1020A00086839783A087B1878AE097EDA3EABDE393
:1020B00082879387A487B58760E080E10E9426012C
:1020C000E3E1F4E083E190E091838083C282D382F4
:1020D000E482F5828FE49FEAA4E1BDE386839783DF
:1020E000A087B18785EC90E2A0EBBDE38287938760
:1020F000A487B58760E083E10E942601E3EFF3E067
:1021000081E190E09183808386EB9EE4A0E0B0E0E3
:1021100082839383A483B58382EF91E4AFE4BCE32D
:1021200086839783A087B1878CE29DE7A8E2BEE310
:1021300082879387A487B58760E081E10E942601AA
:10214000E5E0F4E082E190E091838083C282D38273
:10215000E482F58282E89BE8A5E1BDE3868397836C
:10216000A087B18788EB9EE1A5E8BDE382879387CE
:10217000A487B58760E082E10E942601EBEEF3E0E0
:1021800082E0808384E0818386E082838EE08383A3
:1021900087E0848388E085838CE086838FE0878373
:1021A000FF90EF90DF90CF9008955058BB27AA275B
:1021B0000E94ED100C943E120E94301238F00E94E2
:1021C000371220F039F49F3F19F426F40C942D12A5
:1021D0000EF4E095E7FB0C942712E92F0E944F12B2
:1021E00058F3BA17620773078407950720F079F44C
:1021F000A6F50C9471120EF4E0950B2EBA2FA02DBB
:102200000B01B90190010C01CA01A0011124FF27A3
:10221000591B99F0593F50F4503E68F11A16F0409E
:10222000A22F232F342F4427585FF3CF469537959D
:102230002795A795F0405395C9F77EF41F16BA0B62
:10224000620B730B840BBAF09150A1F0FF0FBB1F10
:10225000661F771F881FC2F70EC0BA0F621F731F59
:10226000841F48F4879577956795B795F7959E3FB6
:1022700008F0B0CF9395880F08F09927EE0F979547
:10228000879508950E9456110C943E120E943712B1
:1022900058F00E94301240F029F45F3F29F00C946E
:1022A000271251110C9472120C942D120E944F128D
:1022B00068F39923B1F3552391F3951B550BBB2775
:1022C000AA2762177307840738F09F5F5F4F220FBA
:1022D000331F441FAA1FA9F335D00E2E3AF0E0E8B1
:1022E00032D091505040E695001CCAF72BD0FE2FFB
:1022F00029D0660F771F881FBB1F2617370748078F
:10230000AB07B0E809F0BB0B802DBF01FF27935846
:102310005F4F3AF09E3F510578F00C9427120C94D1
:1023200072125F3FE4F3983ED4F3869577956795F4
:10233000B795F7959F5FC9F7880F911D969587957B
:1023400097F90895E1E0660F771F881FBB1F62179A
:1023500073078407BA0720F0621B730B840BBA0B58
:10236000EE1F88F7E09508950E94BB116894B111A3
:102370000C94721208950E94571288F09F5798F09B
:10238000B92F9927B751B0F0E1F0660F771F881F7A
:10239000991F1AF0BA95C9F714C0B13091F00E9494
:1023A0007112B1E008950C947112672F782F88276D
:1023B000B85F39F0B93FCCF3869577956795B395BB
:1023C000D9F73EF490958095709561957F4F8F4F2A
:1023D0009F4F0895E89409C097FB3EF4909580952F
:1023E000709561957F4F8F4F9F4F9923A9F0F92FDB
:1023F00096E9BB279395F695879577956795B79559
:10240000F111F8CFFAF4BB0F11F460FF1BC06F5F3E
:102410007F4F8F4F9F4F16C0882311F096E911C050
:10242000772321F09EE8872F762F05C0662371F071
:1024300096E8862F70E060E02AF09A95660F771F85
:10244000881FDAF7880F9695879597F9089597F979
:102450009F6780E870E060E008959FEF80EC08954A
:1024600000240A9416161706180609060895002473
:102470000A9412161306140605060895092E0394ED
:10248000000C11F4882352F0BB0F40F4BF2B11F461
:1024900060FF04C06F5F7F4F8F4F9F4F089557FDC0
:1024A0009058440F551F59F05F3F71F04795880FC2
:1024B00097FB991F61F09F3F79F087950895121659
:1024C00013061406551FF2CF4695F1DF08C0161605
:1024D00017061806991FF1CF8695710561050894B6
:1024E0000895E894BB2766277727CB0197F90895CD
:1024F0000E948B120C943E120E94301238F00E94FF
:10250000371220F0952311F00C9427120C942D1201
:1025100011240C9472120E944F1270F3959FC1F314
:10252000950F50E0551F629FF001729FBB27F00D81
:10253000B11D639FAA27F00DB11DAA1F649F6627D6
:10254000B00DA11D661F829F2227B00DA11D621F25
:10255000739FB00DA11D621F839FA00D611D221FDF
:10256000749F3327A00D611D231F849F600D211DC3
:10257000822F762F6A2F11249F5750409AF0F1F046
:1025800088234AF0EE0FFF1FBB1F661F771F881FAF
:1025900091505040A9F79E3F510580F00C942712AE
:1025A0000C9472125F3FE4F3983ED4F386957795CE
:1025B0006795B795F795E7959F5FC1F7FE2B880F55
:1025C000911D9695879597F9089597FB072E16F418
:1025D000009407D077FD09D00E94471307FC05D06F
:1025E0003EF4909581959F4F0895709561957F4F2A
:1025F0000895A1E21A2EAA1BBB1BFD010DC0AA1F44
:10260000BB1FEE1FFF1FA217B307E407F50720F05B
:10261000A21BB30BE40BF50B661F771F881F991FD6
:102620001A9469F760957095809590959B01AC011F
:10263000BD01CF010895052E97FB1EF400940E9462
:10264000321357FD07D00E94F91207FC03D04EF455
:102650000C94321350954095309521953F4F4F4F34
:102660005F4F089590958095709561957F4F8F4F3E
:102670009F4F0895EE0FFF1F0590F491E02D0994F0
:102680000E945B13B7FF0895821B930B0895AA1B4A
:10269000BB1B51E107C0AA1FBB1FA617B70710F04D
:1026A000A61BB70B881F991F5A95A9F7809590957F
:1026B000BC01CD010895A29FB001B39FC001A39FAB
:1026C000700D811D1124911DB29F700D811D11246B
:1026D000911D089581E090E0F8940C947813FB012B
:1026E000DC0102C001900D9241505040D8F708958E
:0426F000F894FFCF8C
:1026F4000100000000900B240B530BD70B980062D1
:0C2704000B760B7374617274000D0A00F8
:00000001FF
