:100000000C946E000C9496000C9496000C94FD01D8
:100010000C9496000C9416020C9496000C94960086
:100020000C9496000C9496000C9496000C949600F8
:100030000C9496000C9496000C9496000C949600E8
:100040000C940E010C9496000C94780B0C94520BAB
:100050000C9496000C9496000C9496000C949600C8
:100060000C9496000C949600190A190A5F09AE09BF
:10007000B10978097809B609C309780978097809B6
:10008000780978097809F809FD09000000002400C2
:1000900027002A0000000000250028002B0004048F
:1000A0000404040404040202020202020303030320
:1000B00003030102040810204080010204081020FC
:1000C00001020408102000000008000201000003E3
:1000D00004070000000000000000A20F11241FBE52
:1000E000CFEFD8E0DEBFCDBF11E0A0E0B1E0E2EBA2
:1000F000F6E202C005900D92AC31B107D9F724E0C9
:10010000ACE1B1E001C01D92A534B207E1F710E007
:10011000CEE6D0E004C02197FE010E941913CD362F
:10012000D107C9F70E949D0E0C9457130C94000040
:100130008091200190E001966AE070E00E94C41274
:100140008093200108953FB7F89480912601909103
:100150002701A0912801B091290126B5A89B05C0CF
:100160002F3F19F00196A11DB11D3FBFBA2FA92F36
:10017000982F8827820F911DA11DB11DBC01CD01B3
:1001800042E0660F771F881F991F4A95D1F708959F
:100190008F929F92AF92BF92CF92DF92EF92FF9297
:1001A0006B017C010E94A3004B015C01C114D104CE
:1001B000E104F104F1F00E94A300DC01CB018819F5
:1001C0009909AA09BB09883E9340A105B10570F3BE
:1001D00021E0C21AD108E108F10888EE880E83E018
:1001E000981EA11CB11CC114D104E104F10419F73B
:1001F000DDCFFF90EF90DF90CF90BF90AF909F90BA
:100200008F9008952FB7F894609122017091230187
:1002100080912401909125012FBF08951F920F9284
:100220000FB60F9211242F933F938F939F93AF9309
:10023000BF938091220190912301A0912401B0915C
:1002400025013091210123E0230F2D3720F4019661
:10025000A11DB11D05C026E8230F0296A11DB11DE9
:10026000209321018093220190932301A0932401E4
:10027000B09325018091260190912701A09128013A
:10028000B09129010196A11DB11D80932601909383
:100290002701A0932801B0932901BF91AF919F91AD
:1002A0008F913F912F910F900FBE0F901F90189537
:1002B000CF92DF92EF92FF920F931F93CF93DF9332
:1002C000CDB7DEB7C656D1090FB6F894DEBF0FBE64
:1002D000CDBF6C01AE0149595F4FDE011196F601A9
:1002E00090819E3008F09E50977020910001F0E4BC
:1002F0002F9F90011124922B90937C0080917A0083
:10030000806480937A0080917A0086FDFCCF2091F2
:1003100078008091790030E0382B2D933D93A4171D
:10032000B507E9F682E390E0DE01119620E030E0C7
:1003300041E028173907ACF40D911D91ED90FC9028
:100340001197E016F10654F4AD0142505109FA013B
:10035000F182E08211961C930E9340E02F5F3F4F95
:10036000E8CF411102C00197F9F6F601828193812D
:10037000A481B5818833F4E09F07A105B10539F563
:100380006BA97CA9072E000C880B990B0E94CB113E
:1003900020E030E040EA50E40E9457129B01AC019B
:1003A00060E070EC8FE794E40E942111F601228551
:1003B0003385448555850E94B410F6012681378126
:1003C000408551850E9421110E94931105C0863BF2
:1003D0009E44A105B105A1F2CB01CA59DF4F0FB66A
:1003E000F894DEBF0FBECDBFDF91CF911F910F916B
:1003F000FF90EF90DF90CF9008951F920F920FB66D
:100400000F9211248F939F93EF93FF93E2E3F3E016
:1004100082819381019693838283FF91EF919F91D3
:100420008F910F900FBE0F901F9018951F920F92F3
:100430000FB60F9211248F939F93EF93FF93E2E3F4
:10044000F3E080819181019691838083FF91EF9108
:100450009F918F910F900FBE0F901F901895E2E320
:10046000F3E0118210821382128208958DEE93E0E0
:100470000E94580190932B0180932A0162E070E062
:1004800080E090E00C94C800DF92EF92FF920F930F
:100490001F93CF93DF9368EC70E080E090E00E94C0
:1004A000C8000E94440C0E9436020E946E0CD0903C
:1004B00020014CEF5FEF62E270E080914203909187
:1004C00043030E94BF0DE82E4BEF5FEF63E270E045
:1004D00080914403909145030E94BF0DF82E4CEF8C
:1004E0005FEF62E270E080914603909147030E94C3
:1004F000BF0D082F4CEF5FEF62E270E080913E038A
:1005000090913F030E94BF0D182F4CEF5FEF62E206
:1005100070E080914003909141030E94BF0DD82F5D
:1005200020912A0130912B012531310574F0C90148
:100530006AE070E00E94C412CB01992707973CF44F
:100540002134310524F4C62F03C0C1E001C0C0E04E
:100550008EE70E94230E81E090E00E942E0E8D2DEA
:1005600090E00E942E0E8E2D90E00E942E0E8F2D78
:1005700090E00E942E0E802F90E00E942E0E812F80
:1005800090E00E942E0E8D2F90E00E942E0E8C2F58
:1005900090E00E942E0E81E090E00E942E0E81E2FB
:1005A0000E94230E0E94B90D88E493E00E94240B60
:1005B0000E9402016093FB037093FC038093FD0390
:1005C0009093FE0381E080931F01DF91CF911F91F3
:1005D0000F91FF90EF90DF9008958F929F92AF92CE
:1005E000BF92CF92DF92EF92FF920F931F93CF9320
:1005F000DF930E946E0C83E191E00E94BD0D0E948A
:10060000B90DCAE0D0E096EFE92EFF24FA942AE073
:10061000D22E35E0C32E20913E0330913F03E0916E
:100620004003F0914103C901BE010E94C4128C0134
:10063000CF01BE010E94C4120817190709F4D7C0E0
:100640002E1B3F0B2D5E3F4F2732310508F0CFC0E8
:100650000E942F0220913E0330913F03E09140031E
:10066000F0914103C901BE010E94C4124B018C01EB
:10067000CF01BE010E94C4125B018616970669F481
:100680002E173F071CF4009510953AC08095909561
:10069000280F391FE80FF91F42C0CF01B7010E9490
:1006A000C412860E971E181419046CF481E0881683
:1006B0009104A9F181E0881A9108D89C8001D99C05
:1006C000100D112412C0C901B7010E94C412A60E58
:1006D000B71E82E0A816B10414F181E0A81AB1088F
:1006E000DA9C8001DB9C100D11240F5F1F4F2E1729
:1006F0003F075CF4C901BE010E94C412081B190B1C
:10070000E00FF11F200F311F0AC0CF01BE010E9470
:10071000C412081B190B200F311FE00FF11FC90174
:10072000BE010E94C4128C01CF01BE010E94C412FE
:10073000081B190B83E0000F111F8A95E1F7C9010F
:100740008E1B9F0BBE010E94C41297FF03C09195A0
:1007500081959109019759F4C80117FF04C08827B2
:100760009927801B910B039714F001501109101663
:100770001106D4F4C09E5001C19EB00C112480918A
:100780003203909133038A159B0534F5809134032D
:10079000909135038A159B05FCF466E970E08AE6C2
:1007A0009FEF0E94B10CEBCF11950195110980913B
:1007B0003203909133038017910774F480913403CE
:1007C00090913503801791073CF46AE67FEF86E944
:1007D00090E00E94B10CEBCF0E948C0C64E670E0BC
:1007E00080E090E00E94C8000E946E0C14CFDF9160
:1007F000CF911F910F91FF90EF90DF90CF90BF901E
:10080000AF909F908F9008951F93CF93DF930E9496
:10081000440C14E180914603909147030A9709F430
:100820004EC080914203909143030A9709F447C058
:100830000E942F0280914203909143030A97189FD0
:10084000E001199FD00D11241C161D068CF0D195C6
:10085000C195D10922C080913403909135038C1742
:100860009D0714F568EC70E088EC90E00E94B10CF4
:1008700080913203909133038C179D07ACF4EBCF3A
:1008800080913403909135038C179D076CF468E3D5
:100890007FEF88E39FEF0E94B10C8091320390912B
:1008A00033038C179D0764F30E948C0C64E670E0A0
:1008B00080E090E00E94C8000E94440CABCFDF9122
:1008C000CF911F9108951F93CF93DF930E946E0CD9
:1008D00015E080913E0390913F03209140033091B9
:1008E00041038217930709F466C0821B930B079795
:1008F0000CF061C00E942F0220913E0330913F0313
:100900008091400390914103281B390BC90143E0BA
:10091000880F991F4A95E1F72130310559F49C0160
:1009200097FF04C022273327281B390B23303105BA
:100930000CF0019718161906D4F4189FE001199FBE
:10094000D00D112480913203909133038C179D07B1
:100950003CF580913403909135038C179D0704F585
:1009600066E970E08AE69FEF0E94B10CEBCFCC27DE
:10097000DD27C81BD90B80913203909133038C176C
:100980009D0774F480913403909135038C179D0773
:100990003CF46AE67FEF86E990E00E94B10CEBCF71
:1009A0000E948C0C64E670E080E090E00E94C80039
:1009B0000E946E0C8ECFDF91CF911F910895CF9240
:1009C000DF92EF92FF920F931F93CF93DF936C010F
:1009D000EB01E0913403F0913503609132037091A3
:1009E00033038091380390913903E81BF90B809110
:1009F000360390913703861B970BE80FF91FA091E0
:100A00003C03B0913D03F0933D03E0933C038091A0
:100A10003203909133039093370380933603809190
:100A20003403909135039093390380933803609198
:100A30003A0370913B036E5F7F4F70933B0360936B
:100A40003A03309709F447C04E9FC0014F9F900D65
:100A50005E9F900D1124269FA001279F500D369F69
:100A6000500D1124841B950BEA1BFB0B0E9F90016C
:100A70000F9F300D1E9F300D1124820F931F64E6CF
:100A800070E00E94C412F60120813181F1E0EF167E
:100A9000F10421F08FEFE816F80691F46E9DC00185
:100AA0006F9D900D7E9D900D1124281B390BF60132
:100AB000318320839C0188819981821B930B09C01B
:100AC000260F371FF6013183208388819981861B89
:100AD000970B99838883DF91CF911F910F91FF909E
:100AE000EF90DF90CF9008954F925F926F927F9238
:100AF000AF92BF92CF92DF92EF92FF920F931F932C
:100B0000CF93DF9300D000D0CDB7DEB78C018CE25D
:100B100091E09C838B8385EC9EEF9A8389830E946E
:100B200002012B013C0110923D0310923C031092F4
:100B30003B0310923A03109237031092360310923F
:100B40003903109238030E942F0269817A818B81C8
:100B50009C810E94B10C62E370E080E090E00E9412
:100B6000C8000A35110529F498EEC92E95E0D92E52
:100B70000CC020E833E4D8010E941F1328EE33E0B4
:100B800040E050E00E94FA12690156018DECA81A6B
:100B9000B10880913203909133038A159B057CF54F
:100BA00080913403909135038A159B0544F50E948A
:100BB0000201DC01CB0184199509A609B709853624
:100BC0009105A105B10528F3EE24EA94FE2C0FE06F
:100BD00010E026E030E046E950E0BE016F5F7F4F55
:100BE000CE0103960E94DF040E9402012B013C010A
:100BF00069817A818B819C810E94B10CCACF0E944D
:100C0000A3002B013C0100E010E085E0C81AD108E8
:100C100080913203909133038C159D054CF58091A2
:100C20003403909135038C159D0514F50E94A300A3
:100C3000DC01CB0184199509A609B709C397A10561
:100C4000B10530F369817A81600F711F8B819C81BE
:100C5000801B910B0E94B10C0F5F1F4F05361105D1
:100C600014F004E610E00E94A3002B013C01D0CF59
:100C70000E948C0C0F900F900F900F90DF91CF91EE
:100C80001F910F91FF90EF90DF90CF90BF90AF90AA
:100C90007F906F905F904F9008950E94630464E688
:100CA00070E080E090E00E94C8000E94040464E6C6
:100CB00070E080E090E00E94C8000E94080D64E6A9
:100CC00070E080E090E00E94C8000E94040464E6A6
:100CD00070E080E090E00E94C8008AE590E00E9409
:100CE000740564E670E080E090E00E94C8000C9417
:100CF00063044F925F926F927F92AF92BF92CF92B6
:100D0000DF92EF92FF920F931F93CF93DF9300D068
:100D100000D0CDB7DEB76C010E94A3002B013C01CF
:100D20008CE291E09C838B839A8389830E942F02BB
:100D300010923D0310923C0310923B0310923A0331
:100D40001092370310923603109239031092380331
:100D500002E310E00D3281E01807C9F00E94A30001
:100D6000DC01CB0184199509A609B709C397A10530
:100D7000B10580F3B801665F7F4FC8010E94B10CD6
:100D80000F5F1F4F0E94A3002B013C01E3CF0E9485
:100D900002012B013C0162E370E080E090E00E94E0
:100DA000C80089EAC81684E0D8069CF156018DEB8C
:100DB000A81A81E0B80A76C0809134039091350377
:100DC0008C159D056CF50E940201DC01CB01841994
:100DD0009509A609B70985369105A105B105C8F0A1
:100DE000E12CF12C0EE110E027E030E046E950E084
:100DF000BE016F5F7F4FCE0103960E94DF040E9409
:100E000002012B013C0169817A818B819C810E94C6
:100E1000B10C80913203909133038C159D0564F2DF
:100E20000E948C0C0F900F900F900F90DF91CF913C
:100E30001F910F91FF90EF90DF90CF90BF90AF90F8
:100E40007F906F905F904F900895809134039091C0
:100E500035038A159B056CF50E940201DC01CB016C
:100E600084199509A609B70985369105A105B1052B
:100E7000C8F0E12CF12C0FE010E027E030E044E670
:100E800050E0BE016F5F7F4FCE0103960E94DF04EA
:100E90000E9402012B013C0169817A818B819C8136
:100EA0000E94B10C80913203909133038A159B0507
:100EB00064F20E94A3002B013C0100E010E080914D
:100EC0003203909133038C159D050CF0A9CF8091CE
:100ED0003403909135038C159D050CF0A1CF0E9431
:100EE000A300DC01CB0184199509A609B709C397B2
:100EF000A105B10520F369817A81601B710B8B819B
:100F00009C81801B910B0E94B10C0F5F1F4F053617
:100F1000110514F004E610E00E94A3002B013C012F
:100F2000CECF8F929F92AF92BF92CF92DF92EF92ED
:100F3000FF920F931F93CF93DF93CDB7DEB7C350CC
:100F4000D4400FB6F894DEBF0FBECDBFEDB6FEB6EF
:100F500088E493E00E94A60A181619060CF098C0BF
:100F60008E010F5F1F4F80E094E0F8019C01119209
:100F700021503040E1F7D12C88E493E00E94A60A8A
:100F8000892B51F088E493E00E94840AF801ED0D6A
:100F9000F11D8083D394F0CFD1100DC0CD5FDB4F16
:100FA0001882C350D440809130019091310106974E
:100FB00008F46EC045C0609130017091310180919C
:100FC0002E0190912F0120912C0130912D01F801DB
:100FD000AD2CB12CDF01A01BB10BAA15BB0518F578
:100FE000D190D901A45DBE4F2F5F3F4F1696DC9282
:100FF000611542E0740748F4211542E0340710F00F
:1010000020E030E06F5F7F4FE5CF211542E03407ED
:1010100010F020E030E00196811542E09407D0F214
:1010200080E090E0D7CF90932F0180932E013093F2
:101030002D0120932C017093310160933001AECFCC
:1010400060E070E0CE018D5F9B4F0E94820E88238E
:1010500009F45FC1CD5FDB4F8881C350D4408E3728
:1010600009F057C161E070E0CE018D5F9B4F0E9497
:10107000820E882369F0CD5FDB4F8881C350D44056
:10108000823091F580913001909131010697C8F43A
:101090000E9402010091FB031091FC032091FD03CB
:1010A0003091FE03005F184D2F4F3F4F0617170773
:1010B0002807390708F0D1C180911F018111C0C1F3
:1010C000CCC165E070E0CE018D5F9B4F0E94820E27
:1010D000882309F41EC1CD5FDB4F8881C350D44003
:1010E000813209F016C118C1833091F6CE5FDB4F13
:1010F0001882C250D44062E070E0C8010E94820EA3
:1011000063E070E0CE018E5F9B4F0E94820ECE5F47
:10111000DB4F6881C250D44070E06C5F7F4F80919C
:101120003001909131018617970708F4B1CFCE01B5
:101130008F5F9B4F0E94820E882309F4A9CFCF5F57
:10114000DB4F8881C150D440813209F0A1CFCDB6A8
:10115000DEB6CE5FDB4F8881C250D44090E02DB721
:101160003EB7281B390B0FB6F8943EBF0FBE2DBFFC
:10117000EDB7FEB731965F01EDB7FEB7118232963B
:101180008A0D9B1DE817F90711F01192FBCF812CF6
:10119000912CCE5FDB4F4881C250D44050E0841682
:1011A000950664F4B4016C5F7F4FC501880D991DED
:1011B0000E94820E8FEF881A980AEBCFB501CE01FC
:1011C00002960E944E13A12CB12C88EA882E84E04E
:1011D000982ECE5FDB4F2881C250D44030E0A2165B
:1011E000B3060CF046C0E2E0F0E0EC0FFD1FEA0DA4
:1011F000FB1D8081843071F128F48330B1F58AE5DC
:1012000090E02BC0853029F0803179F584EB90E0B7
:1012100024C041E050E0C50101968217930754F4C1
:10122000F801E80FF91F6181653021F44F5F5F4FCE
:101230005C01F1CF4130510541F0489DC001499D0D
:10124000900D589D900D112402C08AE494E00E94F4
:10125000790605C00E94080D02C00E94740564E66C
:1012600070E080E090E00E94C800EFEFAE1ABE0A86
:10127000B0CF0E9444020E94980010921E01CE5FDF
:10128000DB4F0881C250D44010E00B5F1F4F8091AC
:101290003001909131018017910730F40FB6F89426
:1012A000DEBE0FBECDBEF4CEA12CB12C0E945C0ED2
:1012B000FFEFAF1ABF0AA016B106C0F3EFCF8AE561
:1012C00090E00E94740564E170E080E090E00E948C
:1012D000C80080911C0190911D01019690931D0101
:1012E00080931C010E9444020E94980010921E01EB
:1012F0008091300190913101069708F4C9CE0E9487
:101300005C0E0E945C0E0E945C0E0E945C0E0E94AD
:101310005C0E0E945C0EBCCE62E070E0C8010E94D0
:10132000820E63E070E0CE0102960E94820E64E0BD
:1013300070E0CE0103960E94820E81E080931E0130
:1013400010921F01EA818E2F90E0FC013197E1316C
:10135000F10570F6EC5CFF4F0C9419130E94080D18
:10136000B2CF8AE494E00E947906ADCF0E944D0688
:1013700064E170E080E090E00E94C80010921D01DE
:1013800010921C01AFCF80911C0190911D01049718
:101390007CF480913E0390913F0320914003309173
:1013A000410382179307F9F0821B930B0797DCF434
:1013B0000E94630480913E0390913F038A3091051F
:1013C00091F02091400330914103821B930B0797CA
:1013D00054F40E94080D0E9404048AE590E00E94E3
:1013E00074050E94630410921D0110921C0121C01B
:1013F00084EB90E00E9474051CC080913E039091A4
:101400003F032091400330914103821B930B9C01C9
:101410002D5E3F4F2732310550F497FF03C0919561
:101420008195910906971CF00E94ED0202C00E946E
:10143000630464E170E080E090E00E94C80052CF55
:1014400080912001811102C089E001C08150809308
:1014500020010E9444020E9498000FB6F894FEBE3C
:101460000FBEEDBECD5FDB4F0FB6F894DEBF0FBEF3
:10147000CDBFDF91CF911F910F91FF90EF90DF9043
:10148000CF90BF90AF909F908F900895CF92DF92B2
:10149000EF92FF920F931F93CF93DF936C017A012A
:1014A0008B01C0E0D0E0CE15DF0589F0D8016D9149
:1014B0008D01D601ED91FC910190F081E02DC601E6
:1014C0000995892B11F47E0102C02196ECCFC7014A
:1014D000DF91CF911F910F91FF90EF90DF90CF9010
:1014E0000895089580E090E00895FC01538D448DA7
:1014F000252F30E0842F90E0821B930B541710F0BF
:10150000CF96089501970895FC01918D828D9817CB
:1015100061F0828DDF01A80FB11D5D968C91928DD7
:101520009F5F9F73928F90E008958FEF9FEF0895D4
:10153000FC01918D828D981731F0828DE80FF11D9D
:10154000858D90E008958FEF9FEF0895FC01918DB8
:10155000228D892F90E0805C9F4F821B91098F73B1
:101560009927089588E493E00E94A60A21E0892B38
:1015700009F420E0822F0895FC01848DDF01A80F7B
:10158000B11DA35ABF4F2C91848D90E001968F73AB
:101590009927848FA689B7892C93A089B1898C91CA
:1015A00080648C93938D848D981306C00288F38990
:1015B000E02D80818F7D80830895EF92FF920F93BD
:1015C0001F93CF93DF93EC0181E0888F9B8D8C8DEF
:1015D000981305C0E889F989808185FD24C0F62E1D
:1015E0000B8D10E00F5F1F4F0F731127E02E8C8DB6
:1015F000E8120CC00FB607FCFACFE889F9898081A0
:1016000085FFF5CFCE010E94BC0AF1CF8B8DFE0184
:10161000E80FF11DE35AFF4FF0820B8FEA89FB8937
:101620008081806207C0EE89FF896083E889F9893B
:1016300080818064808381E090E0DF91CF911F9171
:101640000F91FF90EF900895CF93DF93EC01888D79
:101650008823C9F0EA89FB89808185FD05C0A889B6
:10166000B9898C9186FD0FC00FB607FCF5CF80813C
:1016700085FFF2CFA889B9898C9185FFEDCFCE0186
:101680000E94BC0AE7CFDF91CF91089580E090E0FF
:10169000892B29F00E94B20A81110C940000089550
:1016A0000E9449131F920F920FB60F9211242F938D
:1016B0003F934F935F936F937F938F939F93AF93DA
:1016C000BF93EF93FF9388E493E00E94BC0AFF91DD
:1016D000EF91BF91AF919F918F917F916F915F91AA
:1016E0004F913F912F910F900FBE0F901F90189523
:1016F0001F920F920FB60F9211242F938F939F93E7
:10170000EF93FF93E0915803F09159038081E091AA
:101710005E03F0915F0382FD12C0908180916103AE
:101720008F5F8F7320916203821751F0E091610304
:10173000F0E0E85BFC4F958F8093610301C08081EE
:10174000FF91EF919F918F912F910F900FBE0F906E
:101750001F90189590E0FC01EA53FF4F3491FC0173
:10176000EE54FF4F2491FC01E256FF4FE491EE232B
:1017700009F43BC0332339F1333091F038F4313080
:10178000A9F0323001F584B58F7D12C0373091F069
:101790003830A1F03430B9F4809180008F7D03C0DF
:1017A000809180008F77809380000DC084B58F7703
:1017B00084BD09C08091B0008F7703C08091B000D4
:1017C0008F7D8093B000F0E0EE0FFF1FEC56FF4FCF
:1017D000A591B4918FB7F894EC91611103C0209555
:1017E0002E2301C02E2B2C938FBF0895CF93DF9310
:1017F00090E0FC01EE54FF4F2491FC01E256FF4FB4
:101800008491882361F190E0880F991FFC01E657CD
:10181000FF4FC591D491FC01EC56FF4FA591B491B7
:10182000611109C09FB7F89488812095822388832D
:10183000EC912E230BC0623061F49FB7F89438818D
:10184000822F809583238883EC912E2B2C939FBF2E
:1018500006C08FB7F894E8812E2B28838FBFDF91C5
:10186000CF910895009769F0FC0101900020E9F7FD
:101870003197AF01481B590BBC0188E493E00C94ED
:10188000460A80E090E00895CF93DF9389E294E0E8
:101890000E945801C2E4D3E09983888362E070E03B
:1018A00080E090E00E94C80087E394E00E94580125
:1018B0009B838A8362E070E080E090E00E94C80031
:1018C0008BE194E00E9458019D838C8362E070E07C
:1018D00080E090E0DF91CF910C94C800CF93DF932C
:1018E0008DE094E00E945801CEE3D3E09983888391
:1018F00062E070E080E090E00E94C8008FEF93E02B
:101900000E9458019B838A8362E070E080E090E04F
:10191000DF91CF910C94C8000F931F93CF93DF9367
:10192000C5EED3E060E088810E94AA0B60E0898167
:101930000E94AA0B00E911E010938900009388002F
:1019400060E08C810E94AA0B60E08D810E94AA0B4E
:1019500010938B0000938A00DF91CF911F910F911C
:101960000895CF93DF93EB0197FF05C09195819583
:10197000910921E001C020E0813931E0930714F0A2
:1019800080E991E09093890080938800892B11F47D
:1019900060E00AC0222339F060E08091E5030E94F4
:1019A000AA0B61E006C061E08091E5030E94AA0BEA
:1019B00060E08091E6030E94AA0BD7FF05C0D19595
:1019C000C195D10981E001C080E0C13991E0D9071A
:1019D00014F0C0E9D1E0D0938B00C0938A00CD2BE6
:1019E00011F460E00AC0882339F060E08091E903D7
:1019F0000E94AA0B61E006C061E08091E9030E94A9
:101A0000AA0B60E08091EA03DF91CF910C94AA0BBE
:101A1000CF92DF92EF92FF920F931F93CF93DF93BA
:101A200000D000D0CDB7DEB784ED9EEF9C838B83D2
:101A300082E391E09A8389830E9402016B017C0119
:101A400010923D0310923C0310923B0310923A0314
:101A50001092370310923603109239031092380314
:101A60000E942F0269817A818B819C810E94B10C36
:101A700062E370E080E090E00E94C8008091320351
:101A8000909133038F3295407CF58091340390918F
:101A900035038F32954044F50E940201DC01CB01F1
:101AA0008C199D09AE09BF0985369105A105B105BF
:101AB00028F3EE24E394F12C0FE010E026E030E070
:101AC00046E950E0BE016F5F7F4FCE0103960E9452
:101AD000DF040E9402016B017C0169817A818B81A4
:101AE0009C810E94B10CCACF0E94A3006B017C01B3
:101AF00000E010E08091320390913303873F9540DE
:101B00004CF58091340390913503873F954014F54F
:101B10000E94A300DC01CB018C199D09AE09BF090D
:101B2000C397A105B10530F369817A81601B710B00
:101B30008B819C81800F911F0E94B10C0F5F1F4F02
:101B40000536110514F004E610E00E94A3006B01B5
:101B50007C01D0CF0E948C0C0F900F900F900F90B3
:101B6000DF91CF911F910F91FF90EF90DF90CF9079
:101B7000089589E191E00C94320C0C94320C9C0194
:101B8000FB018A30910584F0841B950B6AE070E0BC
:101B90000E94C412643071051CF42E173F0714F024
:101BA00060E070E0862F089581E00895CF93DF9381
:101BB0000E94320CEC010E94B90D8C0F9D1FDF9129
:101BC000CF9108958F929F92AF92BF920F931F93E0
:101BD000CF93DF93CDB7DEB7A1970FB6F894DEBFF2
:101BE0000FBECDBF19A2423008F44AE08E010F5D4E
:101BF0001F4F842E912CA12CB12CA50194010E9481
:101C0000D812E62FB901CA0101501109EA3014F4C3
:101C1000E05D01C0E95CD801EC93232B242B252B3C
:101C200061F7C8010E94320CA1960FB6F894DEBF8E
:101C30000FBECDBFDF91CF911F910F91BF90AF909D
:101C40009F908F900895E0914803F091490301908F
:101C5000F081E02D682F88E493E00994CF92DF9221
:101C6000EF92FF92CF93DF936C01990FEE08FF087C
:101C7000F7FE17C08DE20E94230EEC01662777273E
:101C8000CB016C197D098E099F094AE00E94E20D83
:101C90008C0F9D1FDF91CF91FF90EF90DF90CF9041
:101CA00008954AE0C701B601DF91CF91FF90EF9010
:101CB000DF90CF900C94E20D4091300150913101B2
:101CC00041155105E9F020912E0130912F01F901C4
:101CD000E45DFE4F86819EEF96832F5F3F4F211577
:101CE00092E0390710F020E030E030932F0120938C
:101CF0002E01415051095093310140933001089514
:101D000080E008952091300130913101232B89F03A
:101D1000009779F020912E0130912F01FB01E20F05
:101D2000F31FF170E45DFE4F2681FC01208381E00A
:101D30000895FC01108280E00895789484B5826053
:101D400084BD84B5816084BD85B5826085BD85B55F
:101D5000816085BD80916E00816080936E001092DD
:101D60008100809181008260809381008091810058
:101D700081608093810080918000816080938000E9
:101D80008091B10084608093B1008091B000816047
:101D90008093B00080917A00846080937A00809173
:101DA0007A00826080937A0080917A0081608093CB
:101DB0007A0080917A00806880937A001092C10046
:101DC000E0915803F091590382E08083E09154033D
:101DD000F09155031082E0915603F091570380E192
:101DE000808310926003E0915C03F0915D0386E0D4
:101DF0008083E0915A03F0915B038081806180834E
:101E0000E0915A03F0915B03808188608083E091C8
:101E10005A03F0915B03808180688083E0915A03CC
:101E2000F0915B0380818F7D808386E092E0ECE21D
:101E3000F1E0DF019C011D9221503040E1F761E0AB
:101E40008091E5030E94F60B61E08091E6030E9419
:101E5000F60B61E089E00E94F60B60E08091E703F9
:101E60000E94F60B60E08091E8030E94F60B61E0AF
:101E70008091E9030E94F60B61E08091EA030E94E1
:101E8000F60B61E08AE00E94F60B60E08091EB03C4
:101E90000E94F60B60E08091EC030E94F60B80EA52
:101EA0008093800081E18093810080E991E09093AC
:101EB00087008093860060E083E00E94F60B60E07C
:101EC00085E00E94F60B60E08DE00E94F60B60E07A
:101ED0008BE00E94F60B80916D00886080936D000E
:101EE000DA9A8091680084608093680080916D0028
:101EF000806280936D00DA9A80916800846080939C
:101F0000680080916B00806280936B00D89A80910A
:101F1000680081608093680080916B008860809386
:101F20006B00D89A8091680081608093680060EDB2
:101F300077E080E090E00E94C8000E9491070E9434
:101F4000460BFBCFCF92DF92EF92FF92E8E4F3E0F3
:101F50001382128288EE93E0A0E0B0E08483958340
:101F6000A683B78385E091E09183808385EC90E040
:101F70009587848784EC90E09787868780EC90E053
:101F8000918B808B81EC90E0938B828B82EC90E044
:101F9000958B848B86EC90E0978B868B118E128EBE
:101FA000138E148E0E9402016093FB037093FC0356
:101FB0008093FD039093FE03E7E3F4E08EE090E06E
:101FC0009183808388E3C82E84E0D82EE12CF12C05
:101FD000C282D382E482F5828CEB94E7A3E1BDE375
:101FE00086839783A087B1878FE892ECA5E7BDE34E
:101FF00082879387A487B58760E08EE00E94F60B06
:1020000081E080930001E9E2F4E08FE090E09183C9
:102010008083C282D382E482F58286E993E4ABE0D6
:10202000BDE386839783A087B1878CEE91E5A8EB0B
:10203000BDE382879387A487B58760E08FE00E9425
:10204000F60BEBE1F4E080E190E091838083C282C3
:10205000D382E482F5828CEB96E9A0E1BDE386832E
:102060009783A087B1878AE097EDA3EABDE38287D3
:102070009387A487B58760E080E10E94F60BEDE0CE
:10208000F4E083E190E091838083C282D382E48292
:10209000F5828FE49FEAA4E1BDE386839783A0875E
:1020A000B18785EC90E2A0EBBDE382879387A4879C
:1020B000B58760E083E10E94F60BEDEEF3E081E18D
:1020C00090E09183808386EB9EE4A0E0B0E0828381
:1020D0009383A483B58382EF91E4AFE4BCE386836A
:1020E0009783A087B1878CE29DE7A8E2BEE3828751
:1020F0009387A487B58760E081E10E94F60BEFEF3C
:10210000F3E082E190E091838083C282D382E48213
:10211000F58282E89BE8A5E1BDE386839783A087EB
:10212000B18788EB9EE1A5E8BDE382879387A4870A
:10213000B58760E082E10E94F60BE5EEF3E082E015
:10214000808384E0818386E082838EE0838387E0DE
:10215000848388E085838CE086838FE08783FF908B
:10216000EF90DF90CF9008955058BB27AA270E9488
:10217000CC100C941D120E940F1238F00E941612FF
:1021800020F039F49F3F19F426F40C940C120EF44D
:10219000E095E7FB0C940612E92F0E942E1258F3EB
:1021A000BA17620773078407950720F079F4A6F53C
:1021B0000C9450120EF4E0950B2EBA2FA02D0B01AB
:1021C000B90190010C01CA01A0011124FF27591B7C
:1021D00099F0593F50F4503E68F11A16F040A22F82
:1021E000232F342F4427585FF3CF469537952795F3
:1021F000A795F0405395C9F77EF41F16BA0B620BF2
:10220000730B840BBAF09150A1F0FF0FBB1F661F38
:10221000771F881FC2F70EC0BA0F621F731F841F7B
:1022200048F4879577956795B795F7959E3F08F0A1
:10223000B0CF9395880F08F09927EE0F9795879563
:1022400008950E9435110C941D120E94161258F028
:102250000E940F1240F029F45F3F29F00C940612FF
:1022600051110C9451120C940C120E942E1268F30E
:102270009923B1F3552391F3951B550BBB27AA273F
:1022800062177307840738F09F5F5F4F220F331F79
:10229000441FAA1FA9F335D00E2E3AF0E0E832D041
:1022A00091505040E695001CCAF72BD0FE2F29D044
:1022B000660F771F881FBB1F261737074807AB0716
:1022C000B0E809F0BB0B802DBF01FF2793585F4F8B
:1022D0003AF09E3F510578F00C9406120C9451127E
:1022E0005F3FE4F3983ED4F3869577956795B7956D
:1022F000F7959F5FC9F7880F911D9695879597F978
:102300000895E1E0660F771F881FBB1F62177307F0
:102310008407BA0720F0621B730B840BBA0BEE1F05
:1023200088F7E09508950E949A116894B1110C9471
:10233000511208950E94361288F09F5798F0B92FD5
:102340009927B751B0F0E1F0660F771F881F991FEA
:102350001AF0BA95C9F714C0B13091F00E9450122A
:10236000B1E008950C945012672F782F8827B85F3A
:1023700039F0B93FCCF3869577956795B395D9F742
:102380003EF490958095709561957F4F8F4F9F4F4C
:102390000895E89409C097FB3EF490958095709558
:1023A00061957F4F8F4F9F4F9923A9F0F92F96E9A1
:1023B000BB279395F695879577956795B795F11116
:1023C000F8CFFAF4BB0F11F460FF1BC06F5F7F4FB3
:1023D0008F4F9F4F16C0882311F096E911C07723C5
:1023E00021F09EE8872F762F05C0662371F096E8CE
:1023F000862F70E060E02AF09A95660F771F881F9D
:10240000DAF7880F9695879597F9089597F99F675A
:1024100080E870E060E008959FEF80EC089500246C
:102420000A941616170618060906089500240A9439
:1024300012161306140605060895092E0394000CBF
:1024400011F4882352F0BB0F40F4BF2B11F460FF4E
:1024500004C06F5F7F4F8F4F9F4F089557FD905877
:10246000440F551F59F05F3F71F04795880F97FB58
:10247000991F61F09F3F79F0879508951216130612
:102480001406551FF2CF4695F1DF08C01616170641
:102490001806991FF1CF8695710561050894089576
:1024A000E894BB2766277727CB0197F908950E9408
:1024B0006A120C941D120E940F1238F00E9416121C
:1024C00020F0952311F00C9406120C940C12112498
:1024D0000C9451120E942E1270F3959FC1F3950F28
:1024E00050E0551F629FF001729FBB27F00DB11D98
:1024F000639FAA27F00DB11DAA1F649F6627B00D28
:10250000A11D661F829F2227B00DA11D621F739F10
:10251000B00DA11D621F839FA00D611D221F749F1E
:102520003327A00D611D231F849F600D211D822F65
:10253000762F6A2F11249F5750409AF0F1F088238C
:102540004AF0EE0FFF1FBB1F661F771F881F9150B9
:102550005040A9F79E3F510580F00C9406120C9450
:1025600051125F3FE4F3983ED4F3869577956795D3
:10257000B795F795E7959F5FC1F7FE2B880F911DE3
:102580009695879597F9089597FB072E16F4009472
:1025900007D077FD09D00E94261307FC05D03EF432
:1025A000909581959F4F0895709561957F4F0895FF
:1025B000A1E21A2EAA1BBB1BFD010DC0AA1FBB1F47
:1025C000EE1FFF1FA217B307E407F50720F0A21BB9
:1025D000B30BE40BF50B661F771F881F991F1A9426
:1025E00069F760957095809590959B01AC01BD0150
:1025F000CF010895052E97FB1EF400940E9411133D
:1026000057FD07D00E94D81207FC03D04EF40C945B
:10261000111350954095309521953F4F4F4F5F4F87
:10262000089590958095709561957F4F8F4F9F4F3E
:102630000895EE0FFF1F0590F491E02D09940E947C
:102640003A13B7FF0895821B930B0895AA1BBB1B77
:1026500051E107C0AA1FBB1FA617B70710F0A61BA2
:10266000B70B881F991F5A95A9F780959095BC01C3
:10267000CD010895A29FB001B39FC001A39F700D2B
:10268000811D1124911DB29F700D811D1124911D7A
:10269000089581E090E0F8940C945713FB01DC015D
:1026A00002C001900D9241505040D8F70895F8941F
:0226B000FFCF5A
:1026B2000100000000DD0A460A750A240BA60A84FE
:0C26C2000A980A7374617274000D0A001B
:00000001FF
