:100000000C946F000C9497000C9497000C9493013F
:100010000C9497000C94AC010C9497000C949700EE
:100020000C9497000C9497000C9497000C949700F4
:100030000C9497000C9497000C9497000C949700E4
:100040000C94A4000C9497000C94CB0B0C94A50B6F
:100050000C9497000C9497000C9497000C949700C4
:100060000C9497000C9497003A0A3A0AB609BB0917
:10007000CD09A009A009E509FF09A009A009A00967
:10008000A009A009A009360A410A5E0A0000000082
:10009000240027002A0000000000250028002B0073
:1000A000040404040404040402020202020203031E
:1000B0000303030301020408102040800102040826
:1000C00010200102040810200000000800020100B6
:1000D000000304070000000000000000621011246B
:1000E0001FBECFEFD8E0DEBFCDBF11E0A0E0B1E092
:1000F000E2E3F8E202C005900D92AC31B107D9F706
:1001000024E0ACE1B1E001C01D92AF34B207E1F7E9
:1001100010E0CFE6D0E004C02197FE010E94D91381
:10012000CE36D107C9F70E945D0F0C9417140C94BA
:10013000000080912A0190E001966AE070E00E9440
:10014000841380932A0108951F920F920FB60F9285
:1001500011242F933F938F939F93AF93BF938091DD
:100160002C0190912D01A0912E01B0912F01309181
:100170002B0123E0230F2D3720F40196A11DB11D83
:1001800005C026E8230F0296A11DB11D20932B0167
:1001900080932C0190932D01A0932E01B0932F01F9
:1001A0008091300190913101A0913201B0913301E1
:1001B0000196A11DB11D8093300190933101A09350
:1001C0003201B0933301BF91AF919F918F913F91D5
:1001D0002F910F900FBE0F901F901895CF92DF9226
:1001E000EF92FF920F931F93CF93DF93CDB7DEB7BC
:1001F000C656D1090FB6F894DEBF0FBECDBF6C0155
:10020000AE0149595F4FDE011196F60190819E3093
:1002100008F09E50977020910001F0E42F9F90010C
:100220001124922B90937C0080917A0080648093BB
:100230007A0080917A0086FDFCCF20917800809131
:10024000790030E0382B2D933D93A417B507E9F6DC
:1002500082E390E0DE01119620E030E041E02817D3
:100260003907ACF40D911D91ED90FC901197E016BB
:10027000F10654F4AD0142505109FA01F182E082D5
:1002800011961C930E9340E02F5F3F4FE8CF411132
:1002900002C00197F9F6F60182819381A481B581AC
:1002A0008833F4E09F07A105B10539F56BA97CA956
:1002B000072E000C880B990B0E948B1220E030E077
:1002C00040EA50E40E9417139B01AC0160E070EC1F
:1002D0008FE794E40E94E111F6012285338544857D
:1002E00055850E947411F60126813781408551851C
:1002F0000E94E1110E94531205C0863B9E44A10555
:10030000B105A1F2CB01CA59DF4F0FB6F894DEBF99
:100310000FBECDBFDF91CF911F910F91FF90EF9056
:10032000DF90CF9008951F920F920FB60F92112475
:100330008F939F93EF93FF93ECE3F3E0828193819C
:10034000019693838283FF91EF919F918F910F90FC
:100350000FBE0F901F9018951F920F920FB60F921D
:1003600011248F939F93EF93FF93ECE3F3E080814D
:100370009181019691838083FF91EF919F918F915D
:100380000F900FBE0F901F901895ECE3F3E01182D1
:10039000108213821282089587EF93E00E94EE008C
:1003A000909335018093340162E070E080E090E04A
:1003B0000C94AA0CDF92EF92FF920F931F93CF93AE
:1003C000DF9368EC70E080E090E00E94AA0C0E944D
:1003D000500D0E94CC010E947A0DD0902A014CEF62
:1003E0005FEF62E270E080914C0390914D030E94B8
:1003F0007F0EE82E4BEF5FEF63E270E080914E03DB
:1004000090914F030E947F0EF82E4CEF5FEF62E257
:1004100070E080915003909151030E947F0E082F4D
:100420004CEF5FEF62E270E08091480390914903E6
:100430000E947F0E182F4CEF5FEF62E270E0809118
:100440004A0390914B030E947F0ED82F20913401D4
:10045000309135012531310574F0C9016AE070E051
:100460000E948413CB01992707973CF4213431056E
:1004700024F4C62F03C0C1E001C0C0E08EE70E9493
:10048000E30E81E090E00E94EE0E8D2D90E00E9440
:10049000EE0E8E2D90E00E94EE0E8F2D90E00E94C9
:1004A000EE0E802F90E00E94EE0E812F90E00E94D1
:1004B000EE0E8D2F90E00E94EE0E8C2F90E00E94A9
:1004C000EE0E81E090E00E94EE0E81E20E94E30ECB
:1004D0000E94790E82E593E00E94770B0E94E40C63
:1004E00060930504709306048093070490930804B6
:1004F00081E080932901DF91CF911F910F91FF90AF
:10050000EF90DF90089581309105A1F480911E0154
:1005100090911F0118161906BCF480911C0190914E
:100520001D0160912001709121010E948413685E79
:100530007B4F0CC028EA34E0829FB001839F700D8E
:10054000929F700D112402C068E174E0CB01089500
:1005500085E79EEF0E94270D67E070E080E090E065
:100560000E94AA0C0C94020D8F929F92AF92BF92A0
:10057000CF92DF92EF92FF920F931F93CF93DF936F
:100580000E947A0D83E191E00E947D0E0E94790E17
:10059000CAE0D0E096EFE92EFF24FA942AE0D22EAA
:1005A00035E0C32E2091480330914903E0914A037E
:1005B000F0914B03C901BE010E9484138C01CF014D
:1005C000BE010E9484130817190709F4D7C02E1B17
:1005D0003F0B2D5E3F4F2732310508F0CFC00E9400
:1005E000C5012091480330914903E0914A03F091FD
:1005F0004B03C901BE010E9484134B018C01CF0142
:10060000BE010E9484135B018616970669F42E17BB
:100610003F071CF4009510953AC080959095280FDF
:10062000391FE80FF91F42C0CF01B7010E948413A0
:10063000860E971E181419046CF481E08816910434
:10064000A9F181E0881A9108D89C8001D99C100DED
:10065000112412C0C901B7010E948413A60EB71E4F
:1006600082E0A816B10414F181E0A81AB108DA9C5E
:100670008001DB9C100D11240F5F1F4F2E173F07C9
:100680005CF4C901BE010E948413081B190BE00F22
:10069000F11F200F311F0AC0CF01BE010E94841339
:1006A000081B190B200F311FE00FF11FC901BE01FC
:1006B0000E9484138C01CF01BE010E948413081B89
:1006C000190B83E0000F111F8A95E1F7C9018E1BFA
:1006D0009F0BBE010E94841397FF03C091958195E3
:1006E0009109019759F4C80117FF04C08827992779
:1006F000801B910B039714F001501109101611067D
:10070000D4F4C09E5001C19EB00C112480913C03D2
:1007100090913D038A159B0534F580913E0390919D
:100720003F038A159B05FCF466E970E08AE69FEFBB
:100730000E94980DEBCF11950195110980913C0312
:1007400090913D038017910774F480913E0390913E
:100750003F03801791073CF46AE67FEF86E990E05B
:100760000E94980DEBCF0E94020D64E670E080E0DD
:1007700090E00E94AA0C0E947A0D14CFDF91CF91D5
:100780001F910F91FF90EF90DF90CF90BF90AF90AF
:100790009F908F9008951F93CF93DF930E94500DE9
:1007A00014E180915003909151030A9709F44EC0CF
:1007B00080914C0390914D030A9709F447C00E9421
:1007C000C50180914C0390914D030A97189FE00159
:1007D000199FD00D11241C161D068CF0D195C195C2
:1007E000D10922C080913E0390913F038C179D0751
:1007F00014F568EC70E088EC90E00E94980D809110
:100800003C0390913D038C179D07ACF4EBCF809196
:100810003E0390913F038C179D076CF468E37FEFD4
:1008200088E39FEF0E94980D80913C0390913D03D7
:100830008C179D0764F30E94020D64E670E080E06F
:1008400090E00E94AA0C0E94500DABCFDF91CF9197
:100850001F910895CF93DF930E947A0D80914803F2
:100860009091490320914A0330914B0382179307DB
:1008700009F462C0821B930B05960B9708F05CC0CD
:100880000E94C501809148039091490320914A0339
:1008900030914B03821B930BEC0123E0CC0FDD1F47
:1008A0002A95E1F797FF03C09195819591090197EA
:1008B00051F4CE01D7FF04C0882799278C1B9D0BCC
:1008C00003970CF021971C161D068CF0D195C1954D
:1008D000D10922C080913E0390913F038C179D0760
:1008E00014F566E970E08AE69FEF0E94980D80910A
:1008F0003C0390913D038C179D07ACF4EBCF8091A6
:100900003E0390913F038C179D076CF46AE67FEFDE
:1009100086E990E00E94980D80913C0390913D0300
:100920008C179D0764F30E94020D64E670E080E07E
:1009300090E00E94AA0C90CFDF91CF910895CF92C2
:10094000DF92EF92FF920F931F93CF93DF936C018F
:10095000EB01E0913E03F0913F0360913C03709105
:100960003D038091420390914303E81BF90B809172
:10097000400390914103861B970BE80FF91FA0914C
:100980004603B0914703F0934703E09346038091F9
:100990003C0390913D0390934103809340038091E9
:1009A0003E0390913F0390934303809342036091F1
:1009B0004403709145036E5F7F4F709345036093CE
:1009C0004403309709F447C04E9FC0014F9F900DDC
:1009D0005E9F900D1124269FA001279F500D369FEA
:1009E000500D1124841B950BEA1BFB0B0E9F9001ED
:1009F0000F9F300D1E9F300D1124820F931F64E650
:100A000070E00E948413F60120813181F1E0EF163D
:100A1000F10421F08FEFE816F80691F46E9DC00105
:100A20006F9D900D7E9D900D1124281B390BF601B2
:100A3000318320839C0188819981821B930B09C09B
:100A4000260F371FF6013183208388819981861B09
:100A5000970B99838883DF91CF911F910F91FF901E
:100A6000EF90DF90CF9008954F925F926F927F92B8
:100A7000AF92BF92CF92DF92EF92FF920F931F93AC
:100A8000CF93DF9300D000D0CDB7DEB78C018CE2DE
:100A900091E09C838B8385EC9EEF9A8389830E94EF
:100AA000E40C2B013C011092470310924603109274
:100AB0004503109244031092410310924003109298
:100AC0004303109242030E94C50169817A818B81A0
:100AD0009C810E94980D62E370E080E090E00E94AB
:100AE000AA0C0A35110529F498EEC92E95E0D92EE5
:100AF0000FC020E833E4D8010E94DF1328EE33E072
:100B000040E050E00E94BA13690182E0C80ED11C97
:100B100056018BECA81AB10880913C0390913D03DB
:100B20008A159B057CF580913E0390913F038A15C1
:100B30009B0544F50E94E40CDC01CB018419950966
:100B4000A609B70985369105A105B10528F3EE245C
:100B5000EA94FE2C0FE010E026E030E046E950E099
:100B6000BE016F5F7F4FCE0103960E949F040E94DB
:100B7000E40C2B013C0169817A818B819C810E946C
:100B8000980DCACF0E94850C2B013C0100E010E0BB
:100B900083E0C81AD10880913C0390913D038C15E5
:100BA0009D054CF580913E0390913F038C159D056A
:100BB00014F50E94850CDC01CB0184199509A60966
:100BC000B709C397A105B10530F369817A81600F38
:100BD000711F8B819C81801B910B0E94980D0F5F70
:100BE0001F4F0536110514F004E610E00E94850C35
:100BF0002B013C01D0CF0E94020D0F900F900F905F
:100C00000F90DF91CF911F910F91FF90EF90DF90A8
:100C1000CF90BF90AF907F906F905F904F9008956E
:100C2000FF920F931F93CF93DF930E942A0464E6F1
:100C300070E080E090E00E94AA0C10921D011092DA
:100C40001C010E94500D84E1F82E80915003909178
:100C500051030A9709F459C080914C0390914D03B8
:100C60000A9709F452C00E94C50180914C039091EB
:100C70004D030A97F89EE001F99ED00D11241C1631
:100C80001D0694F0002711270C1B1D0B22C080911C
:100C90003E0390913F038C179D0714F568EC70E0BC
:100CA00088EC90E00E94980D80913C0390913D0368
:100CB0008C179D07ACF4EBCF80913E0390913F03DE
:100CC000801791076CF468E37FEF88E39FEF0E9441
:100CD000980D80913C0390913D038017910764F338
:100CE0000E94020D64E670E080E090E00E94AA0C91
:100CF0000E94500D80911C0190911D01C80FD91FB9
:100D0000D0931D01C0931C01A0CF64E670E080E089
:100D100090E00E94AA0C0E94C80D64E670E080E09A
:100D200090E00E94AA0C0E94CB0364E670E080E091
:100D300090E00E94AA0C8AE590E00E94340564E6E7
:100D400070E080E090E00E94AA0CDF91CF911F91AB
:100D50000F91FF900C942A044F925F926F927F92B2
:100D6000AF92BF92CF92DF92EF92FF920F931F93B9
:100D7000CF93DF9300D000D0CDB7DEB76C010E94D7
:100D8000850C2B013C0180E991E09C838B839A8345
:100D900089830E94C5011092470310924603109266
:100DA00045031092440310924103109240031092A5
:100DB00043031092420302E310E0013981E0180777
:100DC000C9F00E94850CDC01CB0184199509A609A4
:100DD000B709C397A105B10580F3B801665F7F4FDE
:100DE000C8010E94980D0F5F1F4F0E94850C2B01B8
:100DF0003C01E3CF0E94E40C2B013C0162E370E074
:100E000080E090E00E94AA0C89EAC81684E0D80627
:100E10009CF156018DEBA81A81E0B80A76C080914A
:100E20003E0390913F038C159D056CF50E94E40CE8
:100E3000DC01CB0184199509A609B709853691050E
:100E4000A105B105C8F0E12CF12C0EE110E027E07E
:100E500030E046E950E0BE016F5F7F4FCE01039660
:100E60000E949F040E94E40C2B013C0169817A815D
:100E70008B819C810E94980D80913C0390913D0351
:100E80008C159D0564F20E94020D0F900F900F903B
:100E90000F90DF91CF911F910F91FF90EF90DF9016
:100EA000CF90BF90AF907F906F905F904F900895DC
:100EB00080913E0390913F038A159B056CF50E943B
:100EC000E40CDC01CB0184199509A609B709853624
:100ED0009105A105B105C8F0E12CF12C0FE010E05F
:100EE00025E030E044E650E0BE016F5F7F4FCE0169
:100EF00003960E949F040E94E40C2B013C0169812F
:100F00007A818B819C810E94980D80913C03909105
:100F10003D038A159B0564F20E94850C2B013C0160
:100F200000E010E080913C0390913D038C159D05FD
:100F30000CF0A9CF80913E0390913F038C159D0545
:100F40000CF0A1CF0E94850CDC01CB01841995091E
:100F5000A609B709C397A105B10520F369817A8174
:100F6000601B710B8B819C81801B910B0E94980DE3
:100F70000F5F1F4F0536110514F004E610E00E94C4
:100F8000850C2B013C01CECF8F929F92AF92BF92E6
:100F9000CF92DF92EF92FF920F931F93CF93DF9345
:100FA000CDB7DEB7C350D4400FB6F894DEBF0FBE46
:100FB000CDBFEDB6FEB682E593E00E94F90A1816A1
:100FC00019060CF097C08E010F5F1F4F80E094E070
:100FD000F8019C01119221503040E1F7D12C82E5BB
:100FE00093E00E94F90A892B51F082E593E00E9478
:100FF000D70AF801ED0DF11D8083D394F0CFD11005
:101000000DC0CD5FDB4F1882C350D44080913A01B0
:1010100090913B01069708F46DC045C060913A017C
:1010200070913B01809138019091390120913601F6
:1010300030913701F801AD2CB12CDF01A01BB10BB1
:10104000AA15BB0518F5D190D901AA5CBE4F2F5F38
:101050003F4F1696DC92611542E0740748F4211563
:1010600042E0340710F020E030E06F5F7F4FE5CFC3
:10107000211542E0340710F020E030E001968115A0
:1010800042E09407D0F280E090E0D7CF909339010E
:1010900080933801309337012093360170933B01E0
:1010A00060933A01AECF60E070E0CE018D5F9B4F60
:1010B0000E94420F882309F43FC0CD5FDB4F888137
:1010C000C350D4408E37C1F561E070E0CE018D5F32
:1010D0009B4F0E94420F882369F0CD5FDB4F8881D0
:1010E000C350D440823099F580913A0190913B01F0
:1010F0000697C8F40E94E40C0091050410910604C0
:101100002091070430910804005F184D2F4F3F4F86
:10111000061717072807390708F0F2C1809129013F
:101120008111E1C1EDC165E070E0CE018D5F9B4FA3
:101130000E94420F811103C00E941C0FDBCFCD5FC4
:10114000DB4F8881C350D4408132B1F7DBC083309C
:1011500089F6CE5FDB4F1882C250D44062E070E067
:10116000C8010E94420F63E070E0CE018E5F9B4F8A
:101170000E94420FCE5FDB4F6881C250D44070E0C6
:101180006C5F7F4F80913A0190913B0186179707E2
:1011900008F4B0CFCE018F5F9B4F0E94420F88238F
:1011A00009F4A8CFCF5FDB4F8881C150D440813292
:1011B00009F0A0CFCDB6DEB6CE5FDB4F8881C2503E
:1011C000D44090E02DB73EB7281B390B0FB6F894EA
:1011D0003EBF0FBE2DBFEDB7FEB731965F01EDB735
:1011E000FEB7118232968A0D9B1DE817F90711F0A0
:1011F0001192FBCF812C912CCE5FDB4F4881C250E6
:10120000D44050E08416950664F4B4016C5F7F4FBF
:10121000C501880D991D0E94420F8FEF881A980A08
:10122000EBCFB501CE0102960E940E14A12CB12C79
:10123000CE5FDB4F2881C250D44030E0A216B30607
:10124000DCF5E2E0F0E0EC0FFD1FEA0DFB1D808114
:10125000843019F128F4833059F58AE590E020C0F4
:10126000853029F0803121F584EB90E019C081E0D0
:1012700090E0A5014F5F5F4F421753074CF4F80110
:10128000E40FF51F6181653019F401965A01F1CF21
:101290000E9483020E94AC0605C00E94C80D02C0D5
:1012A0000E94340564E670E080E090E00E94AA0CA1
:1012B000EFEFAE1ABE0ABCCF0E94DA010E9499007D
:1012C00010922801CE5FDB4F0881C250D44010E05D
:1012D0000B5F1F4F80913A0190913B01801791075E
:1012E00030F40FB6F894DEBE0FBECDBE03CFA12CF6
:1012F000B12C0E941C0FFFEFAF1ABF0AA016B10657
:10130000C0F3EFCF62E070E0C8010E94420F63E0DB
:1013100070E0CE0102960E94420F64E070E0CE01C0
:1013200003960E94420F81E08093280110922901C8
:10133000EA818E2F90E0FC013197E231F10590F0C7
:1013400080913A0190913B01069708F4D3CE0E9418
:101350001C0F0E941C0F0E941C0F0E941C0F0E9459
:101360001C0FEACEEC5CFF4F0C94D9138AE590E099
:101370000E94340502C00E94C80D64E170E080E064
:1013800090E00E94AA0C809126019091270101967D
:1013900090932701809326019FC081E090E00E94F6
:1013A00083020E94AC068091200190912101019658
:1013B000909321018093200164E170E080E090E04F
:1013C0000E94AA0C0E94A802DECF10922101109266
:1013D00020010E94100664E170E080E090E00E942D
:1013E000AA0C109227011092260180911E01909163
:1013F0001F01019690931F0180931E016DC0809183
:101400002601909127010497ACF1809148039091B7
:10141000490320914A0330914B038217930709F146
:10142000821B930B05960B97E0F40E942A0480918F
:101430004803909149038A30910599F020914A031D
:1014400030914B03821B930B05960B9750F40E942F
:10145000C80D0E94CB038AE590E00E9434050E94EB
:101460002A04109227011092260104C084EB90E018
:101470000E94340564E170E080E090E00E94AA0CD4
:101480002BC0809148039091490320914A033091E9
:101490004B03821B930B9C012D5E3F4F273231057E
:1014A00050F497FF03C091958195910906971CF020
:1014B0000E94B402DFCF0E942A04DCCF0E94500DAC
:1014C00080914A0390914B03459734F081E090E07E
:1014D0000E9483020E94AC060E94DA010E949900D9
:1014E000109228012DCF80912A01811102C089E03C
:1014F00001C0815080932A010E94DA010E94990064
:101500000FB6F894FEBE0FBEEDBECD5FDB4F0FB63B
:10151000F894DEBF0FBECDBFDF91CF911F910F9129
:10152000FF90EF90DF90CF90BF90AF909F908F9003
:101530000895CF92DF92EF92FF920F931F93CF9374
:10154000DF936C017A018B01C0E0D0E0CE15DF059E
:1015500089F0D8016D918D01D601ED91FC9101903A
:10156000F081E02DC6010995892B11F47E0102C09E
:101570002196ECCFC701DF91CF911F910F91FF9082
:10158000EF90DF90CF900895089580E090E0089567
:10159000FC01538D448D252F30E0842F90E0821B79
:1015A000930B541710F0CF96089501970895FC01FE
:1015B000918D828D981761F0828DDF01A80FB11D8A
:1015C0005D968C91928D9F5F9F73928F90E00895AE
:1015D0008FEF9FEF0895FC01918D828D981731F068
:1015E000828DE80FF11D858D90E008958FEF9FEFBC
:1015F0000895FC01918D228D892F90E0805C9F4F92
:10160000821B91098F739927089582E593E00E94C8
:10161000F90A21E0892B09F420E0822F0895FC01CA
:10162000848DDF01A80FB11DA35ABF4F2C91848D6B
:1016300090E001968F739927848FA689B7892C93A0
:10164000A089B1898C9180648C93938D848D98133B
:1016500006C00288F389E02D80818F7D8083089504
:10166000EF92FF920F931F93CF93DF93EC0181E0F2
:10167000888F9B8D8C8D981305C0E889F9898081AE
:1016800085FD24C0F62E0B8D10E00F5F1F4F0F73EA
:101690001127E02E8C8DE8120CC00FB607FCFACF94
:1016A000E889F989808185FFF5CFCE010E940F0B73
:1016B000F1CF8B8DFE01E80FF11DE35AFF4FF08251
:1016C0000B8FEA89FB898081806207C0EE89FF89E0
:1016D0006083E889F98980818064808381E090E07B
:1016E000DF91CF911F910F91FF90EF900895CF93CD
:1016F000DF93EC01888D8823C9F0EA89FB8980811A
:1017000085FD05C0A889B9898C9186FD0FC00FB6EB
:1017100007FCF5CF808185FFF2CFA889B9898C912C
:1017200085FFEDCFCE010E940F0BE7CFDF91CF9168
:10173000089580E090E0892B29F00E94050B81112B
:101740000C94000008950E9409141F920F920FB686
:101750000F9211242F933F934F935F936F937F9337
:101760008F939F93AF93BF93EF93FF9382E593E0A3
:101770000E940F0BFF91EF91BF91AF919F918F91BD
:101780007F916F915F914F913F912F910F900FBE7D
:101790000F901F9018951F920F920FB60F92112461
:1017A0002F938F939F93EF93FF93E0916203F091B8
:1017B00063038081E0916803F091690382FD12C0A8
:1017C000908180916B038F5F8F7320916C038217E0
:1017D00051F0E0916B03F0E0EE5AFC4F958F80934F
:1017E0006B0301C08081FF91EF919F918F912F91A9
:1017F0000F900FBE0F901F90189590E0FC01E853DA
:10180000FF4F3491FC01EC54FF4F2491FC01E05652
:10181000FF4FE491EE2309F43BC0332339F1333019
:1018200091F038F43130A9F0323001F584B58F7D74
:1018300012C0373091F03830A1F03430B9F48091D3
:1018400080008F7D03C0809180008F77809380001F
:101850000DC084B58F7784BD09C08091B0008F77AB
:1018600003C08091B0008F7D8093B000F0E0EE0F58
:10187000FF1FEA56FF4FA591B4918FB7F894EC91F2
:10188000611103C020952E2301C02E2B2C938FBFF6
:101890000895CF93DF9390E0FC01EC54FF4F249127
:1018A000FC01E056FF4F8491882361F190E0880F9E
:1018B000991FFC01E457FF4FC591D491FC01EA56F2
:1018C000FF4FA591B491611109C09FB7F894888129
:1018D000209582238883EC912E230BC0623061F423
:1018E0009FB7F8943881822F809583238883EC9169
:1018F0002E2B2C939FBF06C08FB7F894E8812E2B18
:1019000028838FBFDF91CF9108953FB7F8948091DE
:10191000300190913101A0913201B091330126B58F
:10192000A89B05C02F3F19F00196A11DB11D3FBF17
:10193000BA2FA92F982F8827820F911DA11DB11DA5
:10194000BC01CD0142E0660F771F881F991F4A95A1
:10195000D1F708958F929F92AF92BF92CF92DF926C
:10196000EF92FF926B017C010E94850C4B015C01A0
:10197000C114D104E104F104F1F00E94850CDC01F2
:10198000CB0188199909AA09BB09883E9340A10592
:10199000B10570F321E0C21AD108E108F10888EE20
:1019A000880E83E0981EA11CB11CC114D104E1046F
:1019B000F10419F7DDCFFF90EF90DF90CF90BF904B
:1019C000AF909F908F9008952FB7F89460912C015D
:1019D00070912D0180912E0190912F012FBF0895BC
:1019E000009769F0FC0101900020E9F73197AF0101
:1019F000481B590BBC0182E593E00C94990A80E0E6
:101A000090E008950F931F93CF93DF93CFEED3E031
:101A100060E088810E94FD0B60E089810E94FD0BDF
:101A200000E911E0109389000093880060E08C8148
:101A30000E94FD0B60E08D810E94FD0B10938B00D6
:101A400000938A00DF91CF911F910F91089597FF26
:101A500005C091958195910921E001C020E081396F
:101A600031E0930714F080E991E09093890080932E
:101A70008800892B11F460E00AC0222339F060E06D
:101A80008091EF030E94FD0B61E006C061E0809150
:101A9000EF030E94FD0B60E08091F0030C94FD0BBE
:101AA000CF93DF9383E394E00E94EE00CCE4D3E095
:101AB0009983888362E070E080E090E00E94AA0C45
:101AC00081E494E00E94EE009B838A8362E070E0F0
:101AD00080E090E00E94AA0C85E294E00E94EE0073
:101AE0009D838C8362E070E080E090E0DF91CF9195
:101AF0000C94AA0CCF93DF9387E194E00E94EE0050
:101B0000C8E4D3E09983888362E070E080E090E0ED
:101B10000E94AA0C89E094E00E94EE009B838A83D5
:101B200062E070E080E090E0DF91CF910C94AA0C2D
:101B3000CF93DF93EB010E94270DD7FF05C0D1950E
:101B4000C195D10981E001C080E0C13991E0D90798
:101B500014F0C0E9D1E0D0938B00C0938A00CD2B64
:101B600011F460E00AC0882339F060E08091F3034B
:101B70000E94FD0B61E006C061E08091F3030E94CA
:101B8000FD0B60E08091F403DF91CF910C94FD0B8D
:101B9000CF92DF92EF92FF920F931F93CF93DF9339
:101BA00000D000D0CDB7DEB784ED9EEF9C838B8351
:101BB00082E391E09A8389830E94E40C6B017C01AB
:101BC000109247031092460310924503109244036B
:101BD000109241031092400310924303109242036B
:101BE0000E94C50169817A818B819C810E94980D38
:101BF00062E370E080E090E00E94AA0C80913C03D8
:101C000090913D03853295407CF580913E03909103
:101C10003F038532954044F50E94E40CDC01CB0182
:101C20008C199D09AE09BF0985369105A105B1053D
:101C300028F3EE24E394F12C0FE010E026E030E0EE
:101C400046E950E0BE016F5F7F4FCE0103960E94D0
:101C50009F040E94E40C6B017C0169817A818B8175
:101C60009C810E94980DCACF0E94850C6B017C015B
:101C700000E010E080913C0390913D038D3E954043
:101C80004CF580913E0390913F038D3E954014F5B5
:101C90000E94850CDC01CB018C199D09AE09BF099E
:101CA000C397A105B10530F369817A81601B710B7F
:101CB0008B819C81800F911F0E94980D0F5F1F4F99
:101CC0000536110514F004E610E00E94850C6B0146
:101CD0007C01D0CF0E94020D0F900F900F900F90BB
:101CE000DF91CF911F910F91FF90EF90DF90CF90F8
:101CF000089589E191E00C94F00C0C94F00C9C0197
:101D0000FB018A30910584F0841B950B6AE070E03A
:101D10000E948413643071051CF42E173F0714F0E1
:101D200060E070E0862F089581E00895CF93DF93FF
:101D30000E94F00CEC010E94790E8C0F9D1FDF9128
:101D4000CF9108958F929F92AF92BF920F931F935E
:101D5000CF93DF93CDB7DEB7A1970FB6F894DEBF70
:101D60000FBECDBF19A2423008F44AE08E010F5DCC
:101D70001F4F842E912CA12CB12CA50194010E94FF
:101D80009813E62FB901CA0101501109EA3014F481
:101D9000E05D01C0E95CD801EC93232B242B252BBB
:101DA00061F7C8010E94F00CA1960FB6F894DEBF4F
:101DB0000FBECDBFDF91CF911F910F91BF90AF901C
:101DC0009F908F900895E0915203F09153030190FA
:101DD000F081E02D682F82E593E00994CF92DF92A5
:101DE000EF92FF92CF93DF936C01990FEE08FF08FB
:101DF000F7FE17C08DE20E94E30EEC0166277727FD
:101E0000CB016C197D098E099F094AE00E94A20E40
:101E10008C0F9D1FDF91CF91FF90EF90DF90CF90BF
:101E200008954AE0C701B601DF91CF91FF90EF908E
:101E3000DF90CF900C94A20E40913A0150913B015B
:101E400041155105E9F02091380130913901F9012E
:101E5000EA5CFE4F86819EEF96832F5F3F4F2115F0
:101E600092E0390710F020E030E030933901209300
:101E700038014150510950933B0140933A01089574
:101E800080E0089520913A0130913B01232B89F0A5
:101E9000009779F02091380130913901FB01E20F70
:101EA000F31FF170EA5CFE4F2681FC01208381E084
:101EB0000895FC01108280E00895789484B58260D2
:101EC00084BD84B5816084BD85B5826085BD85B5DE
:101ED000816085BD80916E00816080936E0010925C
:101EE00081008091810082608093810080918100D7
:101EF0008160809381008091800081608093800068
:101F00008091B10084608093B1008091B0008160C5
:101F10008093B00080917A00846080937A008091F1
:101F20007A00826080937A0080917A008160809349
:101F30007A0080917A00806880937A001092C100C4
:101F4000E0916203F091630382E08083E0915E039D
:101F5000F0915F031082E0916003F091610380E1F2
:101F6000808310926A03E0916603F091670386E034
:101F70008083E0916403F0916503808180618083B8
:101F8000E0916403F0916503808188608083E09133
:101F90006403F0916503808180688083E09164032D
:101FA000F091650380818F7D808386E092E0E6E397
:101FB000F1E0DF019C011D9221503040E1F761E02A
:101FC0008091EF030E94490C61E08091F0030E9430
:101FD000490C61E089E00E94490C60E08091F103C6
:101FE0000E94490C60E08091F2030E94490C61E07C
:101FF0008091F3030E94490C61E08091F4030E94F8
:10200000490C61E08AE00E94490C60E08091F50390
:102010000E94490C60E08091F6030E94490C80EA1E
:102020008093800081E18093810080E991E090932A
:1020300087008093860060E083E00E94490C60E0A6
:1020400085E00E94490C60E08DE00E94490C60E050
:102050008BE00E94490C80916D00886080936D0038
:10206000DA9A8091680084608093680080916D00A6
:10207000806280936D00DA9A80916800846080931A
:10208000680080916B00806280936B00D89A809189
:10209000680081608093680080916B008860809305
:1020A0006B00D89A8091680081608093680060ED31
:1020B00077E080E090E00E94AA0C0E94C4070E9492
:1020C000990BFBCFCF92DF92EF92FF92E2E5F3E024
:1020D0001382128288EE93E0A0E0B0E084839583BF
:1020E000A683B78385E091E09183808385EC90E0BF
:1020F0009587848784EC90E09787868780EC90E0D2
:10210000918B808B81EC90E0938B828B82EC90E0C2
:10211000958B848B86EC90E0978B868B118E128E3C
:10212000138E148E0E94E40C6093050470930604D1
:102130008093070490930804E1E4F4E08EE090E0DB
:102140009183808388E3C82E84E0D82EE12CF12C83
:10215000C282D382E482F58286E091E8A5E1BDE304
:1021600086839783A087B1878FE892ECA5E7BDE3CC
:1021700082879387A487B58760E08EE00E94490C30
:1021800081E080930001E3E3F4E08FE090E091834D
:102190008083C282D382E482F58286E993E4ABE055
:1021A000BDE386839783A087B1878CE59FE8A2EC87
:1021B000BDE382879387A487B58760E08FE00E94A4
:1021C000490CE5E2F4E080E190E091838083C282F3
:1021D000D382E482F5828CEB96E9A0E1BDE38683AD
:1021E0009783A087B1878AE097EDA3EABDE3828752
:1021F0009387A487B58760E080E10E94490CE7E1FE
:10220000F4E083E190E091838083C282D382E48210
:10221000F5828FE49FEAA4E1BDE386839783A087DC
:10222000B18785EC90E2A0EBBDE382879387A4871A
:10223000B58760E083E10E94490CE7EFF3E081E1BC
:1022400090E09183808386EB9EE4A0E0B0E08283FF
:102250009383A483B58382EF91E4AFE4BCE38683E8
:102260009783A087B1878CE29DE7A8E2BEE38287CF
:102270009387A487B58760E081E10E94490CE9E07B
:10228000F4E082E190E091838083C282D382E48291
:10229000F58282E89BE8A5E1BDE386839783A0876A
:1022A000B18788EB9EE1A5E8BDE382879387A48789
:1022B000B58760E082E10E94490CEFEEF3E082E036
:1022C000808384E0818386E082838EE0838387E05D
:1022D000848388E085838CE086838FE08783FF900A
:1022E000EF90DF90CF9008955058BB27AA270E9407
:1022F0008C110C94DD120E94CF1238F00E94D6127D
:1023000020F039F49F3F19F426F40C94CC120EF40B
:10231000E095E7FB0C94C612E92F0E94EE1258F3E9
:10232000BA17620773078407950720F079F4A6F5BA
:102330000C9410130EF4E0950B2EBA2FA02D0B0168
:10234000B90190010C01CA01A0011124FF27591BFA
:1023500099F0593F50F4503E68F11A16F040A22F00
:10236000232F342F4427585FF3CF46953795279571
:10237000A795F0405395C9F77EF41F16BA0B620B70
:10238000730B840BBAF09150A1F0FF0FBB1F661FB7
:10239000771F881FC2F70EC0BA0F621F731F841FFA
:1023A00048F4879577956795B795F7959E3F08F020
:1023B000B0CF9395880F08F09927EE0F97958795E2
:1023C00008950E94F5110C94DD120E94D61258F067
:1023D0000E94CF1240F029F45F3F29F00C94C612FE
:1023E00051110C9411130C94CC120E94EE1268F34C
:1023F0009923B1F3552391F3951B550BBB27AA27BE
:1024000062177307840738F09F5F5F4F220F331FF7
:10241000441FAA1FA9F335D00E2E3AF0E0E832D0BF
:1024200091505040E695001CCAF72BD0FE2F29D0C2
:10243000660F771F881FBB1F261737074807AB0794
:10244000B0E809F0BB0B802DBF01FF2793585F4F09
:102450003AF09E3F510578F00C94C6120C9411137B
:102460005F3FE4F3983ED4F3869577956795B795EB
:10247000F7959F5FC9F7880F911D9695879597F9F6
:102480000895E1E0660F771F881FBB1F621773076F
:102490008407BA0720F0621B730B840BBA0BEE1F84
:1024A00088F7E09508950E945A126894B1110C942F
:1024B000111308950E94F61288F09F5798F0B92FD3
:1024C0009927B751B0F0E1F0660F771F881F991F69
:1024D0001AF0BA95C9F714C0B13091F00E941013E8
:1024E000B1E008950C941013672F782F8827B85FF8
:1024F00039F0B93FCCF3869577956795B395D9F7C1
:102500003EF490958095709561957F4F8F4F9F4FCA
:102510000895E89409C097FB3EF4909580957095D6
:1025200061957F4F8F4F9F4F9923A9F0F92F96E91F
:10253000BB279395F695879577956795B795F11194
:10254000F8CFFAF4BB0F11F460FF1BC06F5F7F4F31
:102550008F4F9F4F16C0882311F096E911C0772343
:1025600021F09EE8872F762F05C0662371F096E84C
:10257000862F70E060E02AF09A95660F771F881F1B
:10258000DAF7880F9695879597F9089597F99F67D9
:1025900080E870E060E008959FEF80EC08950024EB
:1025A0000A941616170618060906089500240A94B8
:1025B00012161306140605060895092E0394000C3E
:1025C00011F4882352F0BB0F40F4BF2B11F460FFCD
:1025D00004C06F5F7F4F8F4F9F4F089557FD9058F6
:1025E000440F551F59F05F3F71F04795880F97FBD7
:1025F000991F61F09F3F79F0879508951216130691
:102600001406551FF2CF4695F1DF08C016161706BF
:102610001806991FF1CF86957105610508940895F4
:10262000E894BB2766277727CB0197F908950E9486
:102630002A130C94DD120E94CF1238F00E94D61299
:1026400020F0952311F00C94C6120C94CC12112496
:102650000C9411130E94EE1270F3959FC1F3950F25
:1026600050E0551F629FF001729FBB27F00DB11D16
:10267000639FAA27F00DB11DAA1F649F6627B00DA6
:10268000A11D661F829F2227B00DA11D621F739F8F
:10269000B00DA11D621F839FA00D611D221F749F9D
:1026A0003327A00D611D231F849F600D211D822FE4
:1026B000762F6A2F11249F5750409AF0F1F088230B
:1026C0004AF0EE0FFF1FBB1F661F771F881F915038
:1026D0005040A9F79E3F510580F00C94C6120C940F
:1026E00011135F3FE4F3983ED4F386957795679591
:1026F000B795F795E7959F5FC1F7FE2B880F911D62
:102700009695879597F9089597FB072E16F40094F0
:1027100007D077FD09D00E94E61307FC05D03EF4F0
:10272000909581959F4F0895709561957F4F08957D
:10273000A1E21A2EAA1BBB1BFD010DC0AA1FBB1FC5
:10274000EE1FFF1FA217B307E407F50720F0A21B37
:10275000B30BE40BF50B661F771F881F991F1A94A4
:1027600069F760957095809590959B01AC01BD01CE
:10277000CF010895052E97FB1EF400940E94D113FB
:1027800057FD07D00E94981307FC03D04EF40C9419
:10279000D11350954095309521953F4F4F4F5F4F46
:1027A000089590958095709561957F4F8F4F9F4FBD
:1027B0000895EE0FFF1F0590F491E02D09940E94FB
:1027C000FA13B7FF0895821B930B0895AA1BBB1B36
:1027D00051E107C0AA1FBB1FA617B70710F0A61B21
:1027E000B70B881F991F5A95A9F780959095BC0142
:1027F000CD010895A29FB001B39FC001A39F700DAA
:10280000811D1124911DB29F700D811D1124911DF8
:10281000089581E090E0F8940C941714FB01DC011A
:1028200002C001900D9241505040D8F70895F8949D
:02283000FFCFD8
:102832000100000000300B990AC80A770BF90AD789
:0C2842000AEB0A7374617274000D0A0046
:00000001FF
